{
  "contractName": "ChoiceType",
  "abi": [
    {
      "constant": true,
      "inputs": [],
      "name": "dao",
      "outputs": [
        {
          "name": "",
          "type": "address"
        }
      ],
      "payable": false,
      "stateMutability": "view",
      "type": "function"
    },
    {
      "constant": true,
      "inputs": [],
      "name": "daoToken",
      "outputs": [
        {
          "name": "",
          "type": "address"
        }
      ],
      "payable": false,
      "stateMutability": "view",
      "type": "function"
    },
    {
      "inputs": [
        {
          "name": "_dao",
          "type": "address"
        },
        {
          "name": "_daoToken",
          "type": "address"
        }
      ],
      "payable": false,
      "stateMutability": "nonpayable",
      "type": "constructor"
    },
    {
      "constant": false,
      "inputs": [
        {
          "name": "_dao",
          "type": "address"
        }
      ],
      "name": "approveChoice",
      "outputs": [
        {
          "name": "",
          "type": "bool"
        }
      ],
      "payable": false,
      "stateMutability": "nonpayable",
      "type": "function"
    }
  ],
  "bytecode": "0x608060405234801561001057600080fd5b506040516040806103128339810180604052604081101561003057600080fd5b810190808051906020019092919080519060200190929190505050816000806101000a81548173ffffffffffffffffffffffffffffffffffffffff021916908373ffffffffffffffffffffffffffffffffffffffff16021790555080600160006101000a81548173ffffffffffffffffffffffffffffffffffffffff021916908373ffffffffffffffffffffffffffffffffffffffff1602179055505050610235806100dd6000396000f3fe608060405260043610610057576000357c0100000000000000000000000000000000000000000000000000000000900463ffffffff1680634162169f1461005c5780634914b030146100b3578063e783d8e21461010a575b600080fd5b34801561006857600080fd5b50610071610173565b604051808273ffffffffffffffffffffffffffffffffffffffff1673ffffffffffffffffffffffffffffffffffffffff16815260200191505060405180910390f35b3480156100bf57600080fd5b506100c8610198565b604051808273ffffffffffffffffffffffffffffffffffffffff1673ffffffffffffffffffffffffffffffffffffffff16815260200191505060405180910390f35b34801561011657600080fd5b506101596004803603602081101561012d57600080fd5b81019080803573ffffffffffffffffffffffffffffffffffffffff1690602001909291905050506101be565b604051808215151515815260200191505060405180910390f35b6000809054906101000a900473ffffffffffffffffffffffffffffffffffffffff1681565b600160009054906101000a900473ffffffffffffffffffffffffffffffffffffffff1681565b6000816000806101000a81548173ffffffffffffffffffffffffffffffffffffffff021916908373ffffffffffffffffffffffffffffffffffffffff1602179055506001905091905056fea165627a7a72305820fdf0106acbe5cb690e18b25c59f3bc29a8107e6c9c2a664e83cf84ee4b3638230029",
  "source": "pragma solidity ^0.5.0;\n\nimport \"../controller/DAO.sol\";\n\ncontract ChoiceType {\n\n    DAO public dao;\n    DAOToken public daoToken;\n\n    constructor(DAO _dao, DAOToken _daoToken) public {\n        dao = _dao;\n        daoToken = _daoToken;\n    }\n\n    function approveChoice(DAO _dao) public returns(bool) {\n        dao = _dao;\n        return true;\n    }\n}",
  "sourcePath": "/Users/neo/Code/dz-0.01/contracts/choices/ChoiceType.sol",
  "compiler": {
    "name": "solc",
    "version": "0.5.0+commit.1d4f565a.Emscripten.clang"
  },
  "schemaVersion": "3.0.0",
  "updatedAt": "2019-08-17T02:06:30.311Z",
  "devdoc": {
    "methods": {}
  },
  "userdoc": {
    "methods": {}
  }
}