{
  "contractName": "Choice",
  "abi": [
    {
      "constant": true,
      "inputs": [],
      "name": "dao",
      "outputs": [
        {
          "name": "",
          "type": "address"
        }
      ],
      "payable": false,
      "stateMutability": "view",
      "type": "function"
    },
    {
      "constant": true,
      "inputs": [],
      "name": "choiceType",
      "outputs": [
        {
          "name": "",
          "type": "address"
        }
      ],
      "payable": false,
      "stateMutability": "view",
      "type": "function"
    },
    {
      "constant": true,
      "inputs": [],
      "name": "daoToken",
      "outputs": [
        {
          "name": "",
          "type": "address"
        }
      ],
      "payable": false,
      "stateMutability": "view",
      "type": "function"
    },
    {
      "inputs": [
        {
          "name": "_dao",
          "type": "address"
        },
        {
          "name": "_daoToken",
          "type": "address"
        },
        {
          "name": "_approvalThreshold",
          "type": "uint256"
        },
        {
          "name": "_choiceType",
          "type": "address"
        }
      ],
      "payable": false,
      "stateMutability": "nonpayable",
      "type": "constructor"
    },
    {
      "anonymous": false,
      "inputs": [
        {
          "indexed": true,
          "name": "_voter",
          "type": "address"
        },
        {
          "indexed": false,
          "name": "_vote",
          "type": "uint256"
        }
      ],
      "name": "voted",
      "type": "event"
    },
    {
      "anonymous": false,
      "inputs": [
        {
          "indexed": false,
          "name": "_status",
          "type": "string"
        }
      ],
      "name": "choiceApproved",
      "type": "event"
    },
    {
      "constant": true,
      "inputs": [],
      "name": "getAddress",
      "outputs": [
        {
          "name": "",
          "type": "address"
        }
      ],
      "payable": false,
      "stateMutability": "view",
      "type": "function"
    },
    {
      "constant": false,
      "inputs": [
        {
          "name": "_voter",
          "type": "address"
        },
        {
          "name": "_vote",
          "type": "uint256"
        }
      ],
      "name": "vote",
      "outputs": [
        {
          "name": "",
          "type": "bool"
        }
      ],
      "payable": false,
      "stateMutability": "nonpayable",
      "type": "function"
    },
    {
      "constant": true,
      "inputs": [],
      "name": "getVoteCount",
      "outputs": [
        {
          "name": "",
          "type": "uint256"
        }
      ],
      "payable": false,
      "stateMutability": "view",
      "type": "function"
    },
    {
      "constant": true,
      "inputs": [],
      "name": "getVoteStatus",
      "outputs": [
        {
          "name": "",
          "type": "string"
        }
      ],
      "payable": false,
      "stateMutability": "view",
      "type": "function"
    }
  ],
  "bytecode": "0x60806040526060604051908101604052806040805190810160405280600881526020017f70726f706f73656400000000000000000000000000000000000000000000000081525081526020016040805190810160405280600881526020017f617070726f76656400000000000000000000000000000000000000000000000081525081526020016040805190810160405280600881526020017f72656a65637465640000000000000000000000000000000000000000000000008152508152506009906003620000d19291906200023f565b50348015620000df57600080fd5b5060405160808062001041833981018060405260808110156200010157600080fd5b8101908080519060200190929190805190602001909291908051906020019092919080519060200190929190505050836000806101000a81548173ffffffffffffffffffffffffffffffffffffffff021916908373ffffffffffffffffffffffffffffffffffffffff16021790555082600160006101000a81548173ffffffffffffffffffffffffffffffffffffffff021916908373ffffffffffffffffffffffffffffffffffffffff16021790555080600260006101000a81548173ffffffffffffffffffffffffffffffffffffffff021916908373ffffffffffffffffffffffffffffffffffffffff160217905550600960006003811015156200020357fe5b01600360020190805460018160011615610100020316600290046200022a92919062000299565b50816003600401819055505050505062000453565b826003810192821562000286579160200282015b82811115620002855782518290805190602001906200027492919062000327565b509160200191906001019062000253565b5b509050620002959190620003ae565b5090565b828054600181600116156101000203166002900490600052602060002090601f016020900481019282601f10620002d4578054855562000314565b828001600101855582156200031457600052602060002091601f016020900482015b8281111562000313578254825591600101919060010190620002f6565b5b509050620003239190620003df565b5090565b828054600181600116156101000203166002900490600052602060002090601f016020900481019282601f106200036a57805160ff19168380011785556200039b565b828001600101855582156200039b579182015b828111156200039a5782518255916020019190600101906200037d565b5b509050620003aa9190620003df565b5090565b620003dc91905b80821115620003d85760008181620003ce919062000407565b50600101620003b5565b5090565b90565b6200040491905b8082111562000400576000816000905550600101620003e6565b5090565b90565b50805460018160011615610100020316600290046000825580601f106200042f575062000450565b601f0160209004906000526020600020908101906200044f9190620003df565b5b50565b610bde80620004636000396000f3fe608060405260043610610083576000357c0100000000000000000000000000000000000000000000000000000000900463ffffffff168063266cf7a51461008857806338cc4831146101185780634162169f1461016f5780634839c989146101c65780634914b0301461021d5780635f74bbde14610274578063e7b3387c146102e7575b600080fd5b34801561009457600080fd5b5061009d610312565b6040518080602001828103825283818151815260200191508051906020019080838360005b838110156100dd5780820151818401526020810190506100c2565b50505050905090810190601f16801561010a5780820380516001836020036101000a031916815260200191505b509250505060405180910390f35b34801561012457600080fd5b5061012d6103b7565b604051808273ffffffffffffffffffffffffffffffffffffffff1673ffffffffffffffffffffffffffffffffffffffff16815260200191505060405180910390f35b34801561017b57600080fd5b506101846103bf565b604051808273ffffffffffffffffffffffffffffffffffffffff1673ffffffffffffffffffffffffffffffffffffffff16815260200191505060405180910390f35b3480156101d257600080fd5b506101db6103e4565b604051808273ffffffffffffffffffffffffffffffffffffffff1673ffffffffffffffffffffffffffffffffffffffff16815260200191505060405180910390f35b34801561022957600080fd5b5061023261040a565b604051808273ffffffffffffffffffffffffffffffffffffffff1673ffffffffffffffffffffffffffffffffffffffff16815260200191505060405180910390f35b34801561028057600080fd5b506102cd6004803603604081101561029757600080fd5b81019080803573ffffffffffffffffffffffffffffffffffffffff16906020019092919080359060200190929190505050610430565b604051808215151515815260200191505060405180910390f35b3480156102f357600080fd5b506102fc61082d565b6040518082815260200191505060405180910390f35b606060036002018054600181600116156101000203166002900480601f0160208091040260200160405190810160405280929190818152602001828054600181600116156101000203166002900480156103ad5780601f10610382576101008083540402835291602001916103ad565b820191906000526020600020905b81548152906001019060200180831161039057829003601f168201915b5050505050905090565b600030905090565b6000809054906101000a900473ffffffffffffffffffffffffffffffffffffffff1681565b600260009054906101000a900473ffffffffffffffffffffffffffffffffffffffff1681565b600160009054906101000a900473ffffffffffffffffffffffffffffffffffffffff1681565b60008260011515600c60008373ffffffffffffffffffffffffffffffffffffffff1673ffffffffffffffffffffffffffffffffffffffff16815260200190815260200160002060020160009054906101000a900460ff161515141515156104ff576040517f08c379a000000000000000000000000000000000000000000000000000000000815260040180806020018281038252601e8152602001807f4572726f723a20566f7465722068617320616c726561647920766f746564000081525060200191505060405180910390fd5b836000600160009054906101000a900473ffffffffffffffffffffffffffffffffffffffff1673ffffffffffffffffffffffffffffffffffffffff166370a08231836040518263ffffffff167c0100000000000000000000000000000000000000000000000000000000028152600401808273ffffffffffffffffffffffffffffffffffffffff1673ffffffffffffffffffffffffffffffffffffffff16815260200191505060206040518083038186803b1580156105bd57600080fd5b505afa1580156105d1573d6000803e3d6000fd5b505050506040513d60208110156105e757600080fd5b8101908080519060200190929190505050111515610693576040517f08c379a00000000000000000000000000000000000000000000000000000000081526004018080602001828103825260218152602001807f4572726f723a20566f746572206973206e6f7420612076616c696420766f746581526020017f720000000000000000000000000000000000000000000000000000000000000081525060400191505060405180910390fd5b84600c60008773ffffffffffffffffffffffffffffffffffffffff1673ffffffffffffffffffffffffffffffffffffffff16815260200190815260200160002060000160006101000a81548173ffffffffffffffffffffffffffffffffffffffff021916908373ffffffffffffffffffffffffffffffffffffffff16021790555083600c60008773ffffffffffffffffffffffffffffffffffffffff1673ffffffffffffffffffffffffffffffffffffffff168152602001908152602001600020600101819055506001600c60008773ffffffffffffffffffffffffffffffffffffffff1673ffffffffffffffffffffffffffffffffffffffff16815260200190815260200160002060020160006101000a81548160ff02191690831515021790555060038001600081548092919060010191905055508473ffffffffffffffffffffffffffffffffffffffff167fc591aa98f3e7d1c3a106f4653e39eba694fcc03ba3c686dfbefbf82f6b06bcea856040518082815260200191505060405180910390a2610820610839565b5060019250505092915050565b60006003800154905090565b600060036004015460038001541415610b09576040805190810160405280600881526020017f617070726f7665640000000000000000000000000000000000000000000000008152506003600201908051906020019061089a929190610b0d565b507faf8e7cd7ab69a541eca44a3375831c411576f96e824a51d181e497dc6c491a936003600201604051808060200182810382528381815460018160011615610100020316600290048152602001915080546001816001161561010002031660029004801561094a5780601f1061091f5761010080835404028352916020019161094a565b820191906000526020600020905b81548152906001019060200180831161092d57829003601f168201915b50509250505060405180910390a1600260009054906101000a900473ffffffffffffffffffffffffffffffffffffffff1673ffffffffffffffffffffffffffffffffffffffff1663dfb68ce56000809054906101000a900473ffffffffffffffffffffffffffffffffffffffff1660036002016040518363ffffffff167c0100000000000000000000000000000000000000000000000000000000028152600401808373ffffffffffffffffffffffffffffffffffffffff1673ffffffffffffffffffffffffffffffffffffffff16815260200180602001828103825283818154600181600116156101000203166002900481526020019150805460018160011615610100020316600290048015610aa35780601f10610a7857610100808354040283529160200191610aa3565b820191906000526020600020905b815481529060010190602001808311610a8657829003601f168201915b50509350505050602060405180830381600087803b158015610ac457600080fd5b505af1158015610ad8573d6000803e3d6000fd5b505050506040513d6020811015610aee57600080fd5b81019080805190602001909291905050505060019050610b0a565b5b90565b828054600181600116156101000203166002900490600052602060002090601f016020900481019282601f10610b4e57805160ff1916838001178555610b7c565b82800160010185558215610b7c579182015b82811115610b7b578251825591602001919060010190610b60565b5b509050610b899190610b8d565b5090565b610baf91905b80821115610bab576000816000905550600101610b93565b5090565b9056fea165627a7a72305820b57850f93ec487fae0896d6898d77c7a19a91183f38680ff86c532397f09a53d0029",
  "source": "pragma solidity ^0.5.0;\n\nimport \"./ChoiceType.sol\";\nimport \"./MintTokenChoice.sol\";\nimport \"../controller/DAO.sol\";\n\ncontract Choice {\n\n    DAO public dao;\n    DAOToken public daoToken;\n    ChoiceType public choiceType;\n\n    //votingMachine - Absolute, Asolute Majority, Quarum\n\n    struct ChoiceData {\n        address proposedBy;\n        string url;\n        string status;\n        uint256 voteCount;\n        uint256 approvalThreshold;\n        uint256 expiry;\n    }\n\n    struct Voter {\n        address voter;\n        uint256 vote;\n        bool voted;\n    }\n\n    ChoiceData choice;\n    string[3] validStatus = [\"proposed\", \"approved\", \"rejected\"];\n\n    mapping (address => Voter) voters;\n\n    event voted(address indexed _voter, uint256 _vote);\n    event choiceApproved(string _status);\n\n    constructor(DAO _dao, DAOToken _daoToken, uint256 _approvalThreshold, address _choiceType)\n    public{\n        dao = _dao;\n        daoToken = _daoToken;\n        choiceType = ChoiceType(_choiceType);\n        choice.status = validStatus[0];\n        choice.approvalThreshold = _approvalThreshold;\n    }\n\n    function getAddress() public view returns(address){\n        return address(this);\n    }\n\n    function vote(address _voter, uint256 _vote)\n    public\n    hasNotVoted(_voter)\n    validVoter(_voter)\n    returns(bool) {\n        voters[_voter].voter = _voter;\n        voters[_voter].vote = _vote;\n        voters[_voter].voted = true;\n        choice.voteCount++;\n        emit voted (_voter, _vote);\n        checkIfVotePassed();\n        return true;\n    }\n\n    function getVoteCount() public view returns(uint256) {\n        return choice.voteCount;\n    }\n\n    function getVoteStatus() public view returns(string memory) {\n        return choice.status;\n    }\n\n    function checkIfVotePassed() private returns(bool){\n        if(choice.voteCount==choice.approvalThreshold) {\n            choice.status = \"approved\";\n            emit choiceApproved(choice.status);\n            choiceType.approveChoice(dao, choice.status);\n            return true;\n        }\n    }\n\n    modifier hasNotVoted(address _voter) {\n        require(voters[_voter].voted!=true, \"Error: Voter has already voted\");\n        _;\n    }\n\n    modifier validVoter(address _voter) {\n        require(daoToken.balanceOf(_voter) > 0, \"Error: Voter is not a valid voter\");\n        _;\n    }\n}",
  "sourcePath": "/Users/neo/Code/dz-0.01/contracts/choices/Choice.sol",
  "compiler": {
    "name": "solc",
    "version": "0.5.0+commit.1d4f565a.Emscripten.clang"
  },
  "schemaVersion": "3.0.0",
  "updatedAt": "2019-08-17T19:53:40.277Z",
  "devdoc": {
    "methods": {}
  },
  "userdoc": {
    "methods": {}
  }
}