{
  "contractName": "Choice",
  "abi": [
    {
      "constant": true,
      "inputs": [],
      "name": "mintTokenChoice",
      "outputs": [
        {
          "name": "",
          "type": "address"
        }
      ],
      "payable": false,
      "stateMutability": "view",
      "type": "function"
    },
    {
      "constant": true,
      "inputs": [],
      "name": "dao",
      "outputs": [
        {
          "name": "",
          "type": "address"
        }
      ],
      "payable": false,
      "stateMutability": "view",
      "type": "function"
    },
    {
      "constant": true,
      "inputs": [],
      "name": "daoToken",
      "outputs": [
        {
          "name": "",
          "type": "address"
        }
      ],
      "payable": false,
      "stateMutability": "view",
      "type": "function"
    },
    {
      "constant": true,
      "inputs": [],
      "name": "daoController",
      "outputs": [
        {
          "name": "",
          "type": "address"
        }
      ],
      "payable": false,
      "stateMutability": "view",
      "type": "function"
    },
    {
      "inputs": [
        {
          "name": "_dao",
          "type": "address"
        },
        {
          "name": "_daoToken",
          "type": "address"
        },
        {
          "name": "_mintTokenChoice",
          "type": "address"
        }
      ],
      "payable": false,
      "stateMutability": "nonpayable",
      "type": "constructor"
    },
    {
      "anonymous": false,
      "inputs": [
        {
          "indexed": true,
          "name": "_voter",
          "type": "address"
        },
        {
          "indexed": false,
          "name": "_vote",
          "type": "uint256"
        }
      ],
      "name": "voted",
      "type": "event"
    },
    {
      "constant": false,
      "inputs": [
        {
          "name": "_voter",
          "type": "address"
        },
        {
          "name": "_vote",
          "type": "uint256"
        }
      ],
      "name": "vote",
      "outputs": [
        {
          "name": "",
          "type": "bool"
        }
      ],
      "payable": false,
      "stateMutability": "nonpayable",
      "type": "function"
    },
    {
      "constant": true,
      "inputs": [],
      "name": "getVoteCount",
      "outputs": [
        {
          "name": "",
          "type": "uint256"
        }
      ],
      "payable": false,
      "stateMutability": "view",
      "type": "function"
    },
    {
      "constant": false,
      "inputs": [],
      "name": "checkIfVotePassed",
      "outputs": [
        {
          "name": "",
          "type": "bool"
        }
      ],
      "payable": false,
      "stateMutability": "nonpayable",
      "type": "function"
    }
  ],
  "bytecode": "0x60806040526060604051908101604052806040805190810160405280600881526020017f50726f706f73656400000000000000000000000000000000000000000000000081525081526020016040805190810160405280600881526020017f417070726f76656400000000000000000000000000000000000000000000000081525081526020016040805190810160405280600881526020017f52656a6563746564000000000000000000000000000000000000000000000000815250815250600a906003620000d19291906200022a565b50348015620000df57600080fd5b5060405160608062000cfe833981018060405260608110156200010157600080fd5b81019080805190602001909291908051906020019092919080519060200190929190505050826000806101000a81548173ffffffffffffffffffffffffffffffffffffffff021916908373ffffffffffffffffffffffffffffffffffffffff16021790555081600160006101000a81548173ffffffffffffffffffffffffffffffffffffffff021916908373ffffffffffffffffffffffffffffffffffffffff16021790555080600360006101000a81548173ffffffffffffffffffffffffffffffffffffffff021916908373ffffffffffffffffffffffffffffffffffffffff160217905550600a6000600381101515620001f957fe5b01600460020190805460018160011615610100020316600290046200022092919062000284565b505050506200043e565b826003810192821562000271579160200282015b82811115620002705782518290805190602001906200025f92919062000312565b50916020019190600101906200023e565b5b50905062000280919062000399565b5090565b828054600181600116156101000203166002900490600052602060002090601f016020900481019282601f10620002bf5780548555620002ff565b82800160010185558215620002ff57600052602060002091601f016020900482015b82811115620002fe578254825591600101919060010190620002e1565b5b5090506200030e9190620003ca565b5090565b828054600181600116156101000203166002900490600052602060002090601f016020900481019282601f106200035557805160ff191683800117855562000386565b8280016001018555821562000386579182015b828111156200038557825182559160200191906001019062000368565b5b509050620003959190620003ca565b5090565b620003c791905b80821115620003c35760008181620003b99190620003f2565b50600101620003a0565b5090565b90565b620003ef91905b80821115620003eb576000816000905550600101620003d1565b5090565b90565b50805460018160011615610100020316600290046000825580601f106200041a57506200043b565b601f0160209004906000526020600020908101906200043a9190620003ca565b5b50565b6108b0806200044e6000396000f3fe608060405260043610610083576000357c0100000000000000000000000000000000000000000000000000000000900463ffffffff16806322b19190146100885780634162169f146100df5780634914b030146101365780635f74bbde1461018d578063d48de62214610200578063db4b3f5614610257578063e7b3387c14610286575b600080fd5b34801561009457600080fd5b5061009d6102b1565b604051808273ffffffffffffffffffffffffffffffffffffffff1673ffffffffffffffffffffffffffffffffffffffff16815260200191505060405180910390f35b3480156100eb57600080fd5b506100f46102d7565b604051808273ffffffffffffffffffffffffffffffffffffffff1673ffffffffffffffffffffffffffffffffffffffff16815260200191505060405180910390f35b34801561014257600080fd5b5061014b6102fc565b604051808273ffffffffffffffffffffffffffffffffffffffff1673ffffffffffffffffffffffffffffffffffffffff16815260200191505060405180910390f35b34801561019957600080fd5b506101e6600480360360408110156101b057600080fd5b81019080803573ffffffffffffffffffffffffffffffffffffffff16906020019092919080359060200190929190505050610322565b604051808215151515815260200191505060405180910390f35b34801561020c57600080fd5b50610215610720565b604051808273ffffffffffffffffffffffffffffffffffffffff1673ffffffffffffffffffffffffffffffffffffffff16815260200191505060405180910390f35b34801561026357600080fd5b5061026c610746565b604051808215151515815260200191505060405180910390f35b34801561029257600080fd5b5061029b610877565b6040518082815260200191505060405180910390f35b600360009054906101000a900473ffffffffffffffffffffffffffffffffffffffff1681565b6000809054906101000a900473ffffffffffffffffffffffffffffffffffffffff1681565b600160009054906101000a900473ffffffffffffffffffffffffffffffffffffffff1681565b60008260011515600d60008373ffffffffffffffffffffffffffffffffffffffff1673ffffffffffffffffffffffffffffffffffffffff16815260200190815260200160002060020160009054906101000a900460ff161515141515156103f1576040517f08c379a000000000000000000000000000000000000000000000000000000000815260040180806020018281038252601e8152602001807f4572726f723a20566f7465722068617320616c726561647920766f746564000081525060200191505060405180910390fd5b836000600160009054906101000a900473ffffffffffffffffffffffffffffffffffffffff1673ffffffffffffffffffffffffffffffffffffffff166370a08231836040518263ffffffff167c0100000000000000000000000000000000000000000000000000000000028152600401808273ffffffffffffffffffffffffffffffffffffffff1673ffffffffffffffffffffffffffffffffffffffff16815260200191505060206040518083038186803b1580156104af57600080fd5b505afa1580156104c3573d6000803e3d6000fd5b505050506040513d60208110156104d957600080fd5b8101908080519060200190929190505050111515610585576040517f08c379a00000000000000000000000000000000000000000000000000000000081526004018080602001828103825260218152602001807f4572726f723a20566f746572206973206e6f7420612076616c696420766f746581526020017f720000000000000000000000000000000000000000000000000000000000000081525060400191505060405180910390fd5b84600d60008773ffffffffffffffffffffffffffffffffffffffff1673ffffffffffffffffffffffffffffffffffffffff16815260200190815260200160002060000160006101000a81548173ffffffffffffffffffffffffffffffffffffffff021916908373ffffffffffffffffffffffffffffffffffffffff16021790555083600d60008773ffffffffffffffffffffffffffffffffffffffff1673ffffffffffffffffffffffffffffffffffffffff168152602001908152602001600020600101819055506001600d60008773ffffffffffffffffffffffffffffffffffffffff1673ffffffffffffffffffffffffffffffffffffffff16815260200190815260200160002060020160006101000a81548160ff0219169083151502179055506004600301600081548092919060010191905055508473ffffffffffffffffffffffffffffffffffffffff167fc591aa98f3e7d1c3a106f4653e39eba694fcc03ba3c686dfbefbf82f6b06bcea856040518082815260200191505060405180910390a2610713610746565b5060019250505092915050565b600260009054906101000a900473ffffffffffffffffffffffffffffffffffffffff1681565b60006004800154600460030154141561087457600360009054906101000a900473ffffffffffffffffffffffffffffffffffffffff1673ffffffffffffffffffffffffffffffffffffffff1663e783d8e26000809054906101000a900473ffffffffffffffffffffffffffffffffffffffff166040518263ffffffff167c0100000000000000000000000000000000000000000000000000000000028152600401808273ffffffffffffffffffffffffffffffffffffffff1673ffffffffffffffffffffffffffffffffffffffff168152602001915050602060405180830381600087803b15801561083757600080fd5b505af115801561084b573d6000803e3d6000fd5b505050506040513d602081101561086157600080fd5b8101908080519060200190929190505050505b90565b600060046003015490509056fea165627a7a72305820935bdc615df51c47848e68b511be9d12d12e1f50d74ba10a3f745f6ac00a939a0029",
  "source": "pragma solidity ^0.5.0;\n\nimport \"./ChoiceType.sol\";\nimport \"./MintTokenChoice.sol\";\nimport \"../controller/DAOController.sol\";\nimport \"../controller/DAO.sol\";\n\ncontract Choice {\n\n    DAO public dao;\n    DAOToken public daoToken;\n    DAOController public daoController;\n    MintTokenChoice public mintTokenChoice;\n\n    //votingMachine - Absolute, Asolute Majority, Quarum\n\n    struct ChoiceData {\n        address proposedBy;\n        string url;\n        string status;\n        uint256 voteCount;\n        uint256 approvalPercetage;\n        uint256 expiry;\n    }\n\n    struct Voter {\n        address voter;\n        uint256 vote;\n        bool voted;\n    }\n\n    ChoiceData choice;\n    string[3] validStatus = [\"Proposed\", \"Approved\", \"Rejected\"];\n\n    mapping (address => Voter) voters;\n\n    event voted(address indexed _voter, uint256 _vote);\n\n    constructor(DAO _dao, DAOToken _daoToken, MintTokenChoice _mintTokenChoice) public {\n        dao = _dao;\n        daoToken = _daoToken;\n        mintTokenChoice = _mintTokenChoice;\n        choice.status = validStatus[0];\n    }\n\n    function vote(address _voter, uint256 _vote)\n    public\n    hasNotVoted(_voter)\n    validVoter(_voter)\n    returns(bool) {\n        voters[_voter].voter = _voter;\n        voters[_voter].vote = _vote;\n        voters[_voter].voted = true;\n        choice.voteCount++;\n        emit voted (_voter, _vote);\n        checkIfVotePassed();\n        return true;\n    }\n\n    function getVoteCount() public view returns(uint256) {\n        return choice.voteCount;\n    }\n\n    function checkIfVotePassed() public returns(bool){\n        if(choice.voteCount==choice.approvalPercetage) {\n            mintTokenChoice.approveChoice(dao);\n        }\n    }\n\n    modifier hasNotVoted(address _voter) {\n        require(voters[_voter].voted!=true, \"Error: Voter has already voted\");\n        _;\n    }\n\n    modifier validVoter(address _voter) {\n        require(daoToken.balanceOf(_voter) > 0, \"Error: Voter is not a valid voter\");\n        _;\n    }\n}",
  "sourcePath": "/Users/neo/Code/dz-0.01/contracts/choices/Choice.sol",
  "compiler": {
    "name": "solc",
    "version": "0.5.0+commit.1d4f565a.Emscripten.clang"
  },
  "schemaVersion": "3.0.0",
  "updatedAt": "2019-08-17T02:21:29.854Z",
  "devdoc": {
    "methods": {}
  },
  "userdoc": {
    "methods": {}
  }
}