{
  "contractName": "DAO",
  "abi": [
    {
      "constant": true,
      "inputs": [],
      "name": "daoName",
      "outputs": [
        {
          "name": "",
          "type": "bytes32"
        }
      ],
      "payable": false,
      "stateMutability": "view",
      "type": "function"
    },
    {
      "constant": true,
      "inputs": [],
      "name": "daoToken",
      "outputs": [
        {
          "name": "",
          "type": "address"
        }
      ],
      "payable": false,
      "stateMutability": "view",
      "type": "function"
    },
    {
      "constant": false,
      "inputs": [],
      "name": "renounceOwnership",
      "outputs": [],
      "payable": false,
      "stateMutability": "nonpayable",
      "type": "function"
    },
    {
      "constant": true,
      "inputs": [],
      "name": "owner",
      "outputs": [
        {
          "name": "",
          "type": "address"
        }
      ],
      "payable": false,
      "stateMutability": "view",
      "type": "function"
    },
    {
      "constant": true,
      "inputs": [],
      "name": "isOwner",
      "outputs": [
        {
          "name": "",
          "type": "bool"
        }
      ],
      "payable": false,
      "stateMutability": "view",
      "type": "function"
    },
    {
      "constant": false,
      "inputs": [
        {
          "name": "newOwner",
          "type": "address"
        }
      ],
      "name": "transferOwnership",
      "outputs": [],
      "payable": false,
      "stateMutability": "nonpayable",
      "type": "function"
    },
    {
      "inputs": [
        {
          "name": "_daoName",
          "type": "bytes32"
        },
        {
          "name": "_daoToken",
          "type": "address"
        }
      ],
      "payable": false,
      "stateMutability": "nonpayable",
      "type": "constructor"
    },
    {
      "payable": true,
      "stateMutability": "payable",
      "type": "fallback"
    },
    {
      "anonymous": false,
      "inputs": [
        {
          "indexed": true,
          "name": "_to",
          "type": "address"
        },
        {
          "indexed": false,
          "name": "_amountInWei",
          "type": "uint256"
        }
      ],
      "name": "SendEther",
      "type": "event"
    },
    {
      "anonymous": false,
      "inputs": [
        {
          "indexed": true,
          "name": "_externalToken",
          "type": "address"
        },
        {
          "indexed": true,
          "name": "_to",
          "type": "address"
        },
        {
          "indexed": false,
          "name": "_value",
          "type": "uint256"
        }
      ],
      "name": "ExternalTokenTransfer",
      "type": "event"
    },
    {
      "anonymous": false,
      "inputs": [
        {
          "indexed": true,
          "name": "_externalToken",
          "type": "address"
        },
        {
          "indexed": false,
          "name": "_from",
          "type": "address"
        },
        {
          "indexed": false,
          "name": "_to",
          "type": "address"
        },
        {
          "indexed": false,
          "name": "_value",
          "type": "uint256"
        }
      ],
      "name": "ExternalTokenTransferFrom",
      "type": "event"
    },
    {
      "anonymous": false,
      "inputs": [
        {
          "indexed": true,
          "name": "_externalToken",
          "type": "address"
        },
        {
          "indexed": false,
          "name": "_spender",
          "type": "address"
        },
        {
          "indexed": false,
          "name": "_value",
          "type": "uint256"
        }
      ],
      "name": "ExternalTokenApproval",
      "type": "event"
    },
    {
      "anonymous": false,
      "inputs": [
        {
          "indexed": true,
          "name": "_sender",
          "type": "address"
        },
        {
          "indexed": false,
          "name": "_value",
          "type": "uint256"
        }
      ],
      "name": "ReceiveEther",
      "type": "event"
    },
    {
      "anonymous": false,
      "inputs": [
        {
          "indexed": true,
          "name": "previousOwner",
          "type": "address"
        },
        {
          "indexed": true,
          "name": "newOwner",
          "type": "address"
        }
      ],
      "name": "OwnershipTransferred",
      "type": "event"
    },
    {
      "constant": false,
      "inputs": [
        {
          "name": "_to",
          "type": "address"
        },
        {
          "name": "_amountInWei",
          "type": "uint256"
        }
      ],
      "name": "sendEther",
      "outputs": [
        {
          "name": "",
          "type": "bool"
        }
      ],
      "payable": false,
      "stateMutability": "nonpayable",
      "type": "function"
    },
    {
      "constant": false,
      "inputs": [
        {
          "name": "_externalToken",
          "type": "address"
        },
        {
          "name": "_to",
          "type": "address"
        },
        {
          "name": "_value",
          "type": "uint256"
        }
      ],
      "name": "externalTokenTransfer",
      "outputs": [
        {
          "name": "",
          "type": "bool"
        }
      ],
      "payable": false,
      "stateMutability": "nonpayable",
      "type": "function"
    },
    {
      "constant": false,
      "inputs": [
        {
          "name": "_externalToken",
          "type": "address"
        },
        {
          "name": "_from",
          "type": "address"
        },
        {
          "name": "_to",
          "type": "address"
        },
        {
          "name": "_value",
          "type": "uint256"
        }
      ],
      "name": "externalTokenTransferFrom",
      "outputs": [
        {
          "name": "",
          "type": "bool"
        }
      ],
      "payable": false,
      "stateMutability": "nonpayable",
      "type": "function"
    },
    {
      "constant": false,
      "inputs": [
        {
          "name": "_externalToken",
          "type": "address"
        },
        {
          "name": "_spender",
          "type": "address"
        },
        {
          "name": "_value",
          "type": "uint256"
        }
      ],
      "name": "externalTokenApproval",
      "outputs": [
        {
          "name": "",
          "type": "bool"
        }
      ],
      "payable": false,
      "stateMutability": "nonpayable",
      "type": "function"
    }
  ],
  "bytecode": "0x608060405234801561001057600080fd5b506040516040806111c18339810180604052604081101561003057600080fd5b810190808051906020019092919080519060200190929190505050336000806101000a81548173ffffffffffffffffffffffffffffffffffffffff021916908373ffffffffffffffffffffffffffffffffffffffff1602179055506000809054906101000a900473ffffffffffffffffffffffffffffffffffffffff1673ffffffffffffffffffffffffffffffffffffffff16600073ffffffffffffffffffffffffffffffffffffffff167f8be0079c531659141344cd1fd0a4f28419497f9722a3daafe3b4186f6b6457e060405160405180910390a38160018190555080600260006101000a81548173ffffffffffffffffffffffffffffffffffffffff021916908373ffffffffffffffffffffffffffffffffffffffff1602179055505050611061806101606000396000f3fe6080604052600436106100a4576000357c0100000000000000000000000000000000000000000000000000000000900463ffffffff16806348976936146100f45780634914b0301461011f578063715018a6146101765780638da5cb5b1461018d5780638f32d59b146101e4578063ab751f7114610213578063b756d5a2146102a6578063c1756a2c14610359578063dab0efff146103cc578063f2fde38b1461045f575b3373ffffffffffffffffffffffffffffffffffffffff167ff32a9f77675fd5917534c7746608fd3e309eac68fbdcbf5925e24ca97a704396346040518082815260200191505060405180910390a2005b34801561010057600080fd5b506101096104b0565b6040518082815260200191505060405180910390f35b34801561012b57600080fd5b506101346104b6565b604051808273ffffffffffffffffffffffffffffffffffffffff1673ffffffffffffffffffffffffffffffffffffffff16815260200191505060405180910390f35b34801561018257600080fd5b5061018b6104dc565b005b34801561019957600080fd5b506101a2610617565b604051808273ffffffffffffffffffffffffffffffffffffffff1673ffffffffffffffffffffffffffffffffffffffff16815260200191505060405180910390f35b3480156101f057600080fd5b506101f9610640565b604051808215151515815260200191505060405180910390f35b34801561021f57600080fd5b5061028c6004803603606081101561023657600080fd5b81019080803573ffffffffffffffffffffffffffffffffffffffff169060200190929190803573ffffffffffffffffffffffffffffffffffffffff16906020019092919080359060200190929190505050610697565b604051808215151515815260200191505060405180910390f35b3480156102b257600080fd5b5061033f600480360360808110156102c957600080fd5b81019080803573ffffffffffffffffffffffffffffffffffffffff169060200190929190803573ffffffffffffffffffffffffffffffffffffffff169060200190929190803573ffffffffffffffffffffffffffffffffffffffff169060200190929190803590602001909291905050506108a3565b604051808215151515815260200191505060405180910390f35b34801561036557600080fd5b506103b26004803603604081101561037c57600080fd5b81019080803573ffffffffffffffffffffffffffffffffffffffff16906020019092919080359060200190929190505050610b18565b604051808215151515815260200191505060405180910390f35b3480156103d857600080fd5b50610445600480360360608110156103ef57600080fd5b81019080803573ffffffffffffffffffffffffffffffffffffffff169060200190929190803573ffffffffffffffffffffffffffffffffffffffff16906020019092919080359060200190929190505050610c35565b604051808215151515815260200191505060405180910390f35b34801561046b57600080fd5b506104ae6004803603602081101561048257600080fd5b81019080803573ffffffffffffffffffffffffffffffffffffffff169060200190929190505050610e24565b005b60015481565b600260009054906101000a900473ffffffffffffffffffffffffffffffffffffffff1681565b6104e4610640565b1515610558576040517f08c379a00000000000000000000000000000000000000000000000000000000081526004018080602001828103825260208152602001807f4f776e61626c653a2063616c6c6572206973206e6f7420746865206f776e657281525060200191505060405180910390fd5b600073ffffffffffffffffffffffffffffffffffffffff166000809054906101000a900473ffffffffffffffffffffffffffffffffffffffff1673ffffffffffffffffffffffffffffffffffffffff167f8be0079c531659141344cd1fd0a4f28419497f9722a3daafe3b4186f6b6457e060405160405180910390a360008060006101000a81548173ffffffffffffffffffffffffffffffffffffffff021916908373ffffffffffffffffffffffffffffffffffffffff160217905550565b60008060009054906101000a900473ffffffffffffffffffffffffffffffffffffffff16905090565b60008060009054906101000a900473ffffffffffffffffffffffffffffffffffffffff1673ffffffffffffffffffffffffffffffffffffffff163373ffffffffffffffffffffffffffffffffffffffff1614905090565b60006106a1610640565b1515610715576040517f08c379a00000000000000000000000000000000000000000000000000000000081526004018080602001828103825260208152602001807f4f776e61626c653a2063616c6c6572206973206e6f7420746865206f776e657281525060200191505060405180910390fd5b600260009054906101000a900473ffffffffffffffffffffffffffffffffffffffff1673ffffffffffffffffffffffffffffffffffffffff1663095ea7b384846040518363ffffffff167c0100000000000000000000000000000000000000000000000000000000028152600401808373ffffffffffffffffffffffffffffffffffffffff1673ffffffffffffffffffffffffffffffffffffffff16815260200182815260200192505050602060405180830381600087803b1580156107da57600080fd5b505af11580156107ee573d6000803e3d6000fd5b505050506040513d602081101561080457600080fd5b8101908080519060200190929190505050508373ffffffffffffffffffffffffffffffffffffffff167f3a48a4d6253b30fd10e57a347c1f9bcb0604946481fae0b2fdad6e74f2a9cbb38484604051808373ffffffffffffffffffffffffffffffffffffffff1673ffffffffffffffffffffffffffffffffffffffff1681526020018281526020019250505060405180910390a2600190509392505050565b60006108ad610640565b1515610921576040517f08c379a00000000000000000000000000000000000000000000000000000000081526004018080602001828103825260208152602001807f4f776e61626c653a2063616c6c6572206973206e6f7420746865206f776e657281525060200191505060405180910390fd5b600260009054906101000a900473ffffffffffffffffffffffffffffffffffffffff1673ffffffffffffffffffffffffffffffffffffffff166323b872dd8585856040518463ffffffff167c0100000000000000000000000000000000000000000000000000000000028152600401808473ffffffffffffffffffffffffffffffffffffffff1673ffffffffffffffffffffffffffffffffffffffff1681526020018373ffffffffffffffffffffffffffffffffffffffff1673ffffffffffffffffffffffffffffffffffffffff1681526020018281526020019350505050602060405180830381600087803b158015610a1a57600080fd5b505af1158015610a2e573d6000803e3d6000fd5b505050506040513d6020811015610a4457600080fd5b8101908080519060200190929190505050508473ffffffffffffffffffffffffffffffffffffffff167f179c15de44aa7ab84896301974328eb40b5b40fe01cfe0fee2924ea712c3e843858585604051808473ffffffffffffffffffffffffffffffffffffffff1673ffffffffffffffffffffffffffffffffffffffff1681526020018373ffffffffffffffffffffffffffffffffffffffff1673ffffffffffffffffffffffffffffffffffffffff168152602001828152602001935050505060405180910390a260019050949350505050565b6000610b22610640565b1515610b96576040517f08c379a00000000000000000000000000000000000000000000000000000000081526004018080602001828103825260208152602001807f4f776e61626c653a2063616c6c6572206973206e6f7420746865206f776e657281525060200191505060405180910390fd5b8273ffffffffffffffffffffffffffffffffffffffff166108fc839081150290604051600060405180830381858888f19350505050158015610bdc573d6000803e3d6000fd5b508273ffffffffffffffffffffffffffffffffffffffff167f5cf9c3dc0403b88750b3ce5ea792cdca787ff26128f6d508b99b2d3853ae13ec836040518082815260200191505060405180910390a26001905092915050565b6000610c3f610640565b1515610cb3576040517f08c379a00000000000000000000000000000000000000000000000000000000081526004018080602001828103825260208152602001807f4f776e61626c653a2063616c6c6572206973206e6f7420746865206f776e657281525060200191505060405180910390fd5b600260009054906101000a900473ffffffffffffffffffffffffffffffffffffffff1673ffffffffffffffffffffffffffffffffffffffff1663a9059cbb84846040518363ffffffff167c0100000000000000000000000000000000000000000000000000000000028152600401808373ffffffffffffffffffffffffffffffffffffffff1673ffffffffffffffffffffffffffffffffffffffff16815260200182815260200192505050602060405180830381600087803b158015610d7857600080fd5b505af1158015610d8c573d6000803e3d6000fd5b505050506040513d6020811015610da257600080fd5b8101908080519060200190929190505050508273ffffffffffffffffffffffffffffffffffffffff168473ffffffffffffffffffffffffffffffffffffffff167f49dc2a60d2599a7b6932d78fb694c30dfc596fe4e0282b5d0fd184b52472c04d846040518082815260200191505060405180910390a3600190509392505050565b610e2c610640565b1515610ea0576040517f08c379a00000000000000000000000000000000000000000000000000000000081526004018080602001828103825260208152602001807f4f776e61626c653a2063616c6c6572206973206e6f7420746865206f776e657281525060200191505060405180910390fd5b610ea981610eac565b50565b600073ffffffffffffffffffffffffffffffffffffffff168173ffffffffffffffffffffffffffffffffffffffff1614151515610f77576040517f08c379a00000000000000000000000000000000000000000000000000000000081526004018080602001828103825260268152602001807f4f776e61626c653a206e6577206f776e657220697320746865207a65726f206181526020017f646472657373000000000000000000000000000000000000000000000000000081525060400191505060405180910390fd5b8073ffffffffffffffffffffffffffffffffffffffff166000809054906101000a900473ffffffffffffffffffffffffffffffffffffffff1673ffffffffffffffffffffffffffffffffffffffff167f8be0079c531659141344cd1fd0a4f28419497f9722a3daafe3b4186f6b6457e060405160405180910390a3806000806101000a81548173ffffffffffffffffffffffffffffffffffffffff021916908373ffffffffffffffffffffffffffffffffffffffff1602179055505056fea165627a7a72305820912fd02675c1b90d5bf559b4068e2505b19c3d71caa4bab6fc4d6b168dee3eb70029",
  "source": "pragma solidity ^0.5.0;\n\nimport \"./DAOToken.sol\";\n\ncontract DAO is Ownable {\n\n    bytes32 public daoName;\n    DAOToken public daoToken;\n\n    event SendEther(address indexed _to, uint256 _amountInWei);\n    event ExternalTokenTransfer(address indexed _externalToken, address indexed _to, uint256 _value);\n    event ExternalTokenTransferFrom(address indexed _externalToken, address _from, address _to, uint256 _value);\n    event ExternalTokenApproval(address indexed _externalToken, address _spender, uint256 _value);\n    event ReceiveEther(address indexed _sender, uint256 _value);\n\n    constructor(bytes32 _daoName, DAOToken _daoToken) public {\n        daoName = _daoName;\n        daoToken = _daoToken;\n    }\n\n    function() external payable {\n        emit ReceiveEther(msg.sender, msg.value);\n    }\n    function sendEther(address payable _to, uint256 _amountInWei)\n    public onlyOwner returns(bool) { //add back OnlyOwner\n        _to.transfer(_amountInWei);\n        emit SendEther(_to, _amountInWei);\n        return true;\n    }\n\n    function externalTokenTransfer(IERC20 _externalToken, address _to, uint256 _value)\n    public onlyOwner returns(bool)\n    {\n        daoToken.transfer(_to, _value);\n        emit ExternalTokenTransfer(address(_externalToken), _to, _value);\n        return true;\n    }\n\n    function externalTokenTransferFrom(IERC20 _externalToken, address _from, address _to, uint256 _value)\n    public onlyOwner returns(bool)\n    {\n        daoToken.transferFrom(_from, _to, _value);\n        emit ExternalTokenTransferFrom(address(_externalToken), _from, _to, _value);\n        return true;\n    }\n\n    function externalTokenApproval(IERC20 _externalToken, address _spender, uint256 _value)\n    public onlyOwner returns(bool)\n    {\n        daoToken.approve(_spender, _value);\n        emit ExternalTokenApproval(address(_externalToken), _spender, _value);\n        return true;\n    }\n}",
  "sourcePath": "/Users/neo/Code/dz-0.01/contracts/controller/DAO.sol",
  "compiler": {
    "name": "solc",
    "version": "0.5.0+commit.1d4f565a.Emscripten.clang"
  },
  "schemaVersion": "3.0.0",
  "updatedAt": "2019-08-16T23:19:12.337Z",
  "devdoc": {
    "methods": {
      "isOwner()": {
        "details": "Returns true if the caller is the current owner."
      },
      "owner()": {
        "details": "Returns the address of the current owner."
      },
      "renounceOwnership()": {
        "details": "Leaves the contract without owner. It will not be possible to call `onlyOwner` functions anymore. Can only be called by the current owner.     * > Note: Renouncing ownership will leave the contract without an owner, thereby removing any functionality that is only available to the owner."
      },
      "transferOwnership(address)": {
        "details": "Transfers ownership of the contract to a new account (`newOwner`). Can only be called by the current owner."
      }
    }
  },
  "userdoc": {
    "methods": {}
  }
}