{
  "contractName": "DAOController",
  "abi": [
    {
      "constant": true,
      "inputs": [],
      "name": "dao",
      "outputs": [
        {
          "name": "",
          "type": "address"
        }
      ],
      "payable": false,
      "stateMutability": "view",
      "type": "function"
    },
    {
      "constant": true,
      "inputs": [
        {
          "name": "",
          "type": "uint256"
        }
      ],
      "name": "neuronList",
      "outputs": [
        {
          "name": "",
          "type": "address"
        }
      ],
      "payable": false,
      "stateMutability": "view",
      "type": "function"
    },
    {
      "constant": true,
      "inputs": [],
      "name": "daoToken",
      "outputs": [
        {
          "name": "",
          "type": "address"
        }
      ],
      "payable": false,
      "stateMutability": "view",
      "type": "function"
    },
    {
      "constant": true,
      "inputs": [],
      "name": "daoController",
      "outputs": [
        {
          "name": "",
          "type": "address"
        }
      ],
      "payable": false,
      "stateMutability": "view",
      "type": "function"
    },
    {
      "inputs": [
        {
          "name": "_dao",
          "type": "address"
        }
      ],
      "payable": false,
      "stateMutability": "nonpayable",
      "type": "constructor"
    },
    {
      "anonymous": false,
      "inputs": [
        {
          "indexed": true,
          "name": "_sender",
          "type": "address"
        },
        {
          "indexed": true,
          "name": "_beneficiary",
          "type": "address"
        },
        {
          "indexed": false,
          "name": "_amount",
          "type": "uint256"
        }
      ],
      "name": "MintTokens",
      "type": "event"
    },
    {
      "anonymous": false,
      "inputs": [
        {
          "indexed": true,
          "name": "_sender",
          "type": "address"
        },
        {
          "indexed": false,
          "name": "_amount",
          "type": "uint256"
        }
      ],
      "name": "BurnTokens",
      "type": "event"
    },
    {
      "anonymous": false,
      "inputs": [
        {
          "indexed": true,
          "name": "_sender",
          "type": "address"
        },
        {
          "indexed": true,
          "name": "_account",
          "type": "address"
        },
        {
          "indexed": false,
          "name": "_amount",
          "type": "uint256"
        }
      ],
      "name": "BurnTokensFrom",
      "type": "event"
    },
    {
      "anonymous": false,
      "inputs": [
        {
          "indexed": true,
          "name": "_sender",
          "type": "address"
        },
        {
          "indexed": true,
          "name": "_neuron",
          "type": "address"
        }
      ],
      "name": "ActivateNeuron",
      "type": "event"
    },
    {
      "anonymous": false,
      "inputs": [
        {
          "indexed": true,
          "name": "_sender",
          "type": "address"
        },
        {
          "indexed": true,
          "name": "neuron",
          "type": "address"
        }
      ],
      "name": "DeactivateNeuron",
      "type": "event"
    },
    {
      "constant": true,
      "inputs": [],
      "name": "getName",
      "outputs": [
        {
          "name": "",
          "type": "string"
        }
      ],
      "payable": false,
      "stateMutability": "view",
      "type": "function"
    },
    {
      "constant": true,
      "inputs": [],
      "name": "getNeurons",
      "outputs": [
        {
          "name": "",
          "type": "address[]"
        }
      ],
      "payable": false,
      "stateMutability": "view",
      "type": "function"
    },
    {
      "constant": true,
      "inputs": [
        {
          "name": "_neuronAddress",
          "type": "address"
        }
      ],
      "name": "getNeuron",
      "outputs": [
        {
          "name": "",
          "type": "string"
        },
        {
          "name": "",
          "type": "uint256"
        },
        {
          "name": "",
          "type": "bytes4"
        }
      ],
      "payable": false,
      "stateMutability": "view",
      "type": "function"
    },
    {
      "constant": false,
      "inputs": [
        {
          "name": "_neuronAddress",
          "type": "address"
        },
        {
          "name": "_neuronName",
          "type": "string"
        },
        {
          "name": "_permissions",
          "type": "bytes4"
        }
      ],
      "name": "activateNeuron",
      "outputs": [
        {
          "name": "",
          "type": "bool"
        }
      ],
      "payable": false,
      "stateMutability": "nonpayable",
      "type": "function"
    },
    {
      "constant": false,
      "inputs": [
        {
          "name": "_neuronAddress",
          "type": "address"
        }
      ],
      "name": "deactivateNeuron",
      "outputs": [
        {
          "name": "",
          "type": "bool"
        }
      ],
      "payable": false,
      "stateMutability": "nonpayable",
      "type": "function"
    },
    {
      "constant": false,
      "inputs": [
        {
          "name": "_dao",
          "type": "address"
        },
        {
          "name": "_beneficiary",
          "type": "address"
        },
        {
          "name": "_amount",
          "type": "uint256"
        }
      ],
      "name": "mintTokens",
      "outputs": [
        {
          "name": "",
          "type": "bool"
        }
      ],
      "payable": false,
      "stateMutability": "nonpayable",
      "type": "function"
    },
    {
      "constant": false,
      "inputs": [
        {
          "name": "_dao",
          "type": "address"
        },
        {
          "name": "_amount",
          "type": "uint256"
        }
      ],
      "name": "burnTokens",
      "outputs": [
        {
          "name": "",
          "type": "bool"
        }
      ],
      "payable": false,
      "stateMutability": "nonpayable",
      "type": "function"
    },
    {
      "constant": false,
      "inputs": [
        {
          "name": "_dao",
          "type": "address"
        },
        {
          "name": "_account",
          "type": "address"
        },
        {
          "name": "_amount",
          "type": "uint256"
        }
      ],
      "name": "burnTokensFrom",
      "outputs": [
        {
          "name": "",
          "type": "bool"
        }
      ],
      "payable": false,
      "stateMutability": "nonpayable",
      "type": "function"
    },
    {
      "constant": false,
      "inputs": [
        {
          "name": "_externalToken",
          "type": "address"
        },
        {
          "name": "_to",
          "type": "address"
        },
        {
          "name": "_value",
          "type": "uint256"
        }
      ],
      "name": "externalTokenTransfer",
      "outputs": [
        {
          "name": "",
          "type": "bool"
        }
      ],
      "payable": false,
      "stateMutability": "nonpayable",
      "type": "function"
    },
    {
      "constant": false,
      "inputs": [
        {
          "name": "_externalToken",
          "type": "address"
        },
        {
          "name": "_from",
          "type": "address"
        },
        {
          "name": "_to",
          "type": "address"
        },
        {
          "name": "_value",
          "type": "uint256"
        }
      ],
      "name": "externalTokenTransferFrom",
      "outputs": [
        {
          "name": "",
          "type": "bool"
        }
      ],
      "payable": false,
      "stateMutability": "nonpayable",
      "type": "function"
    },
    {
      "constant": false,
      "inputs": [
        {
          "name": "_externalToken",
          "type": "address"
        },
        {
          "name": "_spender",
          "type": "address"
        },
        {
          "name": "_value",
          "type": "uint256"
        }
      ],
      "name": "externalTokenApproval",
      "outputs": [
        {
          "name": "",
          "type": "bool"
        }
      ],
      "payable": false,
      "stateMutability": "nonpayable",
      "type": "function"
    }
  ],
  "bytecode": "0x608060405234801561001057600080fd5b506040516020806200277f8339810180604052602081101561003157600080fd5b8101908080519060200190929190505050806000806101000a81548173ffffffffffffffffffffffffffffffffffffffff021916908373ffffffffffffffffffffffffffffffffffffffff1602179055506000809054906101000a900473ffffffffffffffffffffffffffffffffffffffff1673ffffffffffffffffffffffffffffffffffffffff16634914b0306040518163ffffffff167c010000000000000000000000000000000000000000000000000000000002815260040160206040518083038186803b15801561010557600080fd5b505afa158015610119573d6000803e3d6000fd5b505050506040513d602081101561012f57600080fd5b8101908080519060200190929190505050600160006101000a81548173ffffffffffffffffffffffffffffffffffffffff021916908373ffffffffffffffffffffffffffffffffffffffff160217905550506125ee80620001916000396000f3fe6080604052600436106100db576000357c0100000000000000000000000000000000000000000000000000000000900463ffffffff1680630744ef37146100e05780630d1118ce1461014c57806317d7de7c146101bf5780634162169f1461024f578063431bd03b146102a65780634914b030146103215780636fc98ee1146103785780639d41661f1461040b578063ab751f7114610521578063b756d5a2146105b4578063d48de62214610667578063d6be4d27146106be578063dab0efff14610727578063f1fb5bcb146107ba578063fbed8c34146108a1575b600080fd5b3480156100ec57600080fd5b506100f5610934565b6040518080602001828103825283818151815260200191508051906020019060200280838360005b8381101561013857808201518184015260208101905061011d565b505050509050019250505060405180910390f35b34801561015857600080fd5b506101a56004803603604081101561016f57600080fd5b81019080803573ffffffffffffffffffffffffffffffffffffffff169060200190929190803590602001909291905050506109c2565b604051808215151515815260200191505060405180910390f35b3480156101cb57600080fd5b506101d4610c6e565b6040518080602001828103825283818151815260200191508051906020019080838360005b838110156102145780820151818401526020810190506101f9565b50505050905090810190601f1680156102415780820380516001836020036101000a031916815260200191505b509250505060405180910390f35b34801561025b57600080fd5b50610264610f11565b604051808273ffffffffffffffffffffffffffffffffffffffff1673ffffffffffffffffffffffffffffffffffffffff16815260200191505060405180910390f35b3480156102b257600080fd5b506102df600480360360208110156102c957600080fd5b8101908080359060200190929190505050610f36565b604051808273ffffffffffffffffffffffffffffffffffffffff1673ffffffffffffffffffffffffffffffffffffffff16815260200191505060405180910390f35b34801561032d57600080fd5b50610336610f74565b604051808273ffffffffffffffffffffffffffffffffffffffff1673ffffffffffffffffffffffffffffffffffffffff16815260200191505060405180910390f35b34801561038457600080fd5b506103f16004803603606081101561039b57600080fd5b81019080803573ffffffffffffffffffffffffffffffffffffffff169060200190929190803573ffffffffffffffffffffffffffffffffffffffff16906020019092919080359060200190929190505050610f9a565b604051808215151515815260200191505060405180910390f35b34801561041757600080fd5b5061045a6004803603602081101561042e57600080fd5b81019080803573ffffffffffffffffffffffffffffffffffffffff16906020019092919050505061110a565b6040518080602001848152602001837bffffffffffffffffffffffffffffffffffffffffffffffffffffffff19167bffffffffffffffffffffffffffffffffffffffffffffffffffffffff19168152602001828103825285818151815260200191508051906020019080838360005b838110156104e45780820151818401526020810190506104c9565b50505050905090810190601f1680156105115780820380516001836020036101000a031916815260200191505b5094505050505060405180910390f35b34801561052d57600080fd5b5061059a6004803603606081101561054457600080fd5b81019080803573ffffffffffffffffffffffffffffffffffffffff169060200190929190803573ffffffffffffffffffffffffffffffffffffffff169060200190929190803590602001909291905050506112a9565b604051808215151515815260200191505060405180910390f35b3480156105c057600080fd5b5061064d600480360360808110156105d757600080fd5b81019080803573ffffffffffffffffffffffffffffffffffffffff169060200190929190803573ffffffffffffffffffffffffffffffffffffffff169060200190929190803573ffffffffffffffffffffffffffffffffffffffff1690602001909291908035906020019092919050505061156f565b604051808215151515815260200191505060405180910390f35b34801561067357600080fd5b5061067c61186a565b604051808273ffffffffffffffffffffffffffffffffffffffff1673ffffffffffffffffffffffffffffffffffffffff16815260200191505060405180910390f35b3480156106ca57600080fd5b5061070d600480360360208110156106e157600080fd5b81019080803573ffffffffffffffffffffffffffffffffffffffff169060200190929190505050611890565b604051808215151515815260200191505060405180910390f35b34801561073357600080fd5b506107a06004803603606081101561074a57600080fd5b81019080803573ffffffffffffffffffffffffffffffffffffffff169060200190929190803573ffffffffffffffffffffffffffffffffffffffff16906020019092919080359060200190929190505050611c80565b604051808215151515815260200191505060405180910390f35b3480156107c657600080fd5b50610887600480360360608110156107dd57600080fd5b81019080803573ffffffffffffffffffffffffffffffffffffffff1690602001909291908035906020019064010000000081111561081a57600080fd5b82018360208201111561082c57600080fd5b8035906020019184600183028401116401000000008311171561084e57600080fd5b909192939192939080357bffffffffffffffffffffffffffffffffffffffffffffffffffffffff19169060200190929190505050611f46565b604051808215151515815260200191505060405180910390f35b3480156108ad57600080fd5b5061091a600480360360608110156108c457600080fd5b81019080803573ffffffffffffffffffffffffffffffffffffffff169060200190929190803573ffffffffffffffffffffffffffffffffffffffff169060200190929190803590602001909291905050506121b1565b604051808215151515815260200191505060405180910390f35b606060048054806020026020016040519081016040528092919081815260200182805480156109b857602002820191906000526020600020905b8160009054906101000a900473ffffffffffffffffffffffffffffffffffffffff1673ffffffffffffffffffffffffffffffffffffffff168152602001906001019080831161096e575b5050505050905090565b600060107c0100000000000000000000000000000000000000000000000000000000027bffffffffffffffffffffffffffffffffffffffffffffffffffffffff191660107c010000000000000000000000000000000000000000000000000000000002600360003373ffffffffffffffffffffffffffffffffffffffff1673ffffffffffffffffffffffffffffffffffffffff16815260200190815260200160002060040160009054906101000a90047c010000000000000000000000000000000000000000000000000000000002167bffffffffffffffffffffffffffffffffffffffffffffffffffffffff1916141515610b4c576040517f08c379a00000000000000000000000000000000000000000000000000000000081526004018080602001828103825260278152602001807f5065726d697373696f6e204572726f723a205065726d697373696f6e546f427581526020017f726e546f6b656e0000000000000000000000000000000000000000000000000081525060400191505060405180910390fd5b3373ffffffffffffffffffffffffffffffffffffffff167f388d6102a0230861b4e9646fb5acda1c5ec15d39df2b619d39c25d16a1268490836040518082815260200191505060405180910390a2600160009054906101000a900473ffffffffffffffffffffffffffffffffffffffff1673ffffffffffffffffffffffffffffffffffffffff1663b90306ad836040518263ffffffff167c010000000000000000000000000000000000000000000000000000000002815260040180828152602001915050602060405180830381600087803b158015610c2b57600080fd5b505af1158015610c3f573d6000803e3d6000fd5b505050506040513d6020811015610c5557600080fd5b8101908080519060200190929190505050905092915050565b606060107c0100000000000000000000000000000000000000000000000000000000027bffffffffffffffffffffffffffffffffffffffffffffffffffffffff191660107c010000000000000000000000000000000000000000000000000000000002600360003373ffffffffffffffffffffffffffffffffffffffff1673ffffffffffffffffffffffffffffffffffffffff16815260200190815260200160002060040160009054906101000a90047c010000000000000000000000000000000000000000000000000000000002167bffffffffffffffffffffffffffffffffffffffffffffffffffffffff1916141515610df8576040517f08c379a000000000000000000000000000000000000000000000000000000000815260040180806020018281038252602b8152602001807f5065726d697373696f6e204572726f723a205065726d697373696f6e546f547281526020017f616e73666572546f6b656e00000000000000000000000000000000000000000081525060400191505060405180910390fd5b6000809054906101000a900473ffffffffffffffffffffffffffffffffffffffff1673ffffffffffffffffffffffffffffffffffffffff1663489769366040518163ffffffff167c010000000000000000000000000000000000000000000000000000000002815260040160006040518083038186803b158015610e7b57600080fd5b505afa158015610e8f573d6000803e3d6000fd5b505050506040513d6000823e3d601f19601f820116820180604052506020811015610eb957600080fd5b810190808051640100000000811115610ed157600080fd5b82810190506020810184811115610ee757600080fd5b8151856001820283011164010000000082111715610f0457600080fd5b5050929190505050905090565b6000809054906101000a900473ffffffffffffffffffffffffffffffffffffffff1681565b600481815481101515610f4557fe5b906000526020600020016000915054906101000a900473ffffffffffffffffffffffffffffffffffffffff1681565b600160009054906101000a900473ffffffffffffffffffffffffffffffffffffffff1681565b60008273ffffffffffffffffffffffffffffffffffffffff163373ffffffffffffffffffffffffffffffffffffffff167f21f9c9a1a1f9a311a50f15fec5c1faa9e21fc9edf964f0fdecba5bd490484c5e846040518082815260200191505060405180910390a3600160009054906101000a900473ffffffffffffffffffffffffffffffffffffffff1673ffffffffffffffffffffffffffffffffffffffff16630f6798a584846040518363ffffffff167c0100000000000000000000000000000000000000000000000000000000028152600401808373ffffffffffffffffffffffffffffffffffffffff1673ffffffffffffffffffffffffffffffffffffffff16815260200182815260200192505050602060405180830381600087803b1580156110c657600080fd5b505af11580156110da573d6000803e3d6000fd5b505050506040513d60208110156110f057600080fd5b810190808051906020019092919050505090509392505050565b6060600080600360008573ffffffffffffffffffffffffffffffffffffffff1673ffffffffffffffffffffffffffffffffffffffff168152602001908152602001600020600001600360008673ffffffffffffffffffffffffffffffffffffffff1673ffffffffffffffffffffffffffffffffffffffff16815260200190815260200160002060030154600360008773ffffffffffffffffffffffffffffffffffffffff1673ffffffffffffffffffffffffffffffffffffffff16815260200190815260200160002060040160009054906101000a90047c010000000000000000000000000000000000000000000000000000000002828054600181600116156101000203166002900480601f0160208091040260200160405190810160405280929190818152602001828054600181600116156101000203166002900480156112955780601f1061126a57610100808354040283529160200191611295565b820191906000526020600020905b81548152906001019060200180831161127857829003601f168201915b505050505092509250925092509193909250565b600060107c0100000000000000000000000000000000000000000000000000000000027bffffffffffffffffffffffffffffffffffffffffffffffffffffffff191660107c010000000000000000000000000000000000000000000000000000000002600360003373ffffffffffffffffffffffffffffffffffffffff1673ffffffffffffffffffffffffffffffffffffffff16815260200190815260200160002060040160009054906101000a90047c010000000000000000000000000000000000000000000000000000000002167bffffffffffffffffffffffffffffffffffffffffffffffffffffffff1916141515611433576040517f08c379a000000000000000000000000000000000000000000000000000000000815260040180806020018281038252602a8152602001807f5065726d697373696f6e204572726f723a205065726d697373696f6e546f417081526020017f70726f7665546f6b656e0000000000000000000000000000000000000000000081525060400191505060405180910390fd5b6000809054906101000a900473ffffffffffffffffffffffffffffffffffffffff1673ffffffffffffffffffffffffffffffffffffffff1663ab751f718585856040518463ffffffff167c0100000000000000000000000000000000000000000000000000000000028152600401808473ffffffffffffffffffffffffffffffffffffffff1673ffffffffffffffffffffffffffffffffffffffff1681526020018373ffffffffffffffffffffffffffffffffffffffff1673ffffffffffffffffffffffffffffffffffffffff1681526020018281526020019350505050602060405180830381600087803b15801561152b57600080fd5b505af115801561153f573d6000803e3d6000fd5b505050506040513d602081101561155557600080fd5b810190808051906020019092919050505090509392505050565b600060107c0100000000000000000000000000000000000000000000000000000000027bffffffffffffffffffffffffffffffffffffffffffffffffffffffff191660107c010000000000000000000000000000000000000000000000000000000002600360003373ffffffffffffffffffffffffffffffffffffffff1673ffffffffffffffffffffffffffffffffffffffff16815260200190815260200160002060040160009054906101000a90047c010000000000000000000000000000000000000000000000000000000002167bffffffffffffffffffffffffffffffffffffffffffffffffffffffff19161415156116f9576040517f08c379a000000000000000000000000000000000000000000000000000000000815260040180806020018281038252602f8152602001807f5065726d697373696f6e204572726f723a205065726d697373696f6e546f547281526020017f616e73666572546f6b656e46726f6d000000000000000000000000000000000081525060400191505060405180910390fd5b6000809054906101000a900473ffffffffffffffffffffffffffffffffffffffff1673ffffffffffffffffffffffffffffffffffffffff1663b756d5a2868686866040518563ffffffff167c0100000000000000000000000000000000000000000000000000000000028152600401808573ffffffffffffffffffffffffffffffffffffffff1673ffffffffffffffffffffffffffffffffffffffff1681526020018473ffffffffffffffffffffffffffffffffffffffff1673ffffffffffffffffffffffffffffffffffffffff1681526020018373ffffffffffffffffffffffffffffffffffffffff1673ffffffffffffffffffffffffffffffffffffffff168152602001828152602001945050505050602060405180830381600087803b15801561182557600080fd5b505af1158015611839573d6000803e3d6000fd5b505050506040513d602081101561184f57600080fd5b81019080805190602001909291905050509050949350505050565b600260009054906101000a900473ffffffffffffffffffffffffffffffffffffffff1681565b600060107c0100000000000000000000000000000000000000000000000000000000027bffffffffffffffffffffffffffffffffffffffffffffffffffffffff191660107c010000000000000000000000000000000000000000000000000000000002600360003373ffffffffffffffffffffffffffffffffffffffff1673ffffffffffffffffffffffffffffffffffffffff16815260200190815260200160002060040160009054906101000a90047c010000000000000000000000000000000000000000000000000000000002167bffffffffffffffffffffffffffffffffffffffffffffffffffffffff1916141515611a1a576040517f08c379a000000000000000000000000000000000000000000000000000000000815260040180806020018281038252602e8152602001807f5065726d697373696f6e204572726f723a205065726d697373696f6e546f446581526020017f61637469766174654e6575726f6e00000000000000000000000000000000000081525060400191505060405180910390fd5b6000600360008473ffffffffffffffffffffffffffffffffffffffff1673ffffffffffffffffffffffffffffffffffffffff16815260200190815260200160002060030154905060006004600160048054905003815481101515611a7a57fe5b9060005260206000200160009054906101000a900473ffffffffffffffffffffffffffffffffffffffff16905080600483815481101515611ab757fe5b9060005260206000200160006101000a81548173ffffffffffffffffffffffffffffffffffffffff021916908373ffffffffffffffffffffffffffffffffffffffff16021790555081600360008373ffffffffffffffffffffffffffffffffffffffff1673ffffffffffffffffffffffffffffffffffffffff168152602001908152602001600020600301819055506004805480919060019003611b5b91906124a9565b50600360008573ffffffffffffffffffffffffffffffffffffffff1673ffffffffffffffffffffffffffffffffffffffff16815260200190815260200160002060008082016000611bac91906124d5565b6001820160006101000a81549073ffffffffffffffffffffffffffffffffffffffff02191690556002820160006101000a81549073ffffffffffffffffffffffffffffffffffffffff021916905560038201600090556004820160006101000a81549063ffffffff021916905550508373ffffffffffffffffffffffffffffffffffffffff163373ffffffffffffffffffffffffffffffffffffffff167f5f200b531fbee1a78c85e219188d47006568d47fcf79d4d74fb21fce7a9b0f1460405160405180910390a3600192505050919050565b600060107c0100000000000000000000000000000000000000000000000000000000027bffffffffffffffffffffffffffffffffffffffffffffffffffffffff191660107c010000000000000000000000000000000000000000000000000000000002600360003373ffffffffffffffffffffffffffffffffffffffff1673ffffffffffffffffffffffffffffffffffffffff16815260200190815260200160002060040160009054906101000a90047c010000000000000000000000000000000000000000000000000000000002167bffffffffffffffffffffffffffffffffffffffffffffffffffffffff1916141515611e0a576040517f08c379a00000000000000000000000000000000000000000000000000000000081526004018080602001828103825260278152602001807f5065726d697373696f6e204572726f723a205065726d697373696f6e546f427581526020017f726e546f6b656e0000000000000000000000000000000000000000000000000081525060400191505060405180910390fd5b6000809054906101000a900473ffffffffffffffffffffffffffffffffffffffff1673ffffffffffffffffffffffffffffffffffffffff1663dab0efff8585856040518463ffffffff167c0100000000000000000000000000000000000000000000000000000000028152600401808473ffffffffffffffffffffffffffffffffffffffff1673ffffffffffffffffffffffffffffffffffffffff1681526020018373ffffffffffffffffffffffffffffffffffffffff1673ffffffffffffffffffffffffffffffffffffffff1681526020018281526020019350505050602060405180830381600087803b158015611f0257600080fd5b505af1158015611f16573d6000803e3d6000fd5b505050506040513d6020811015611f2c57600080fd5b810190808051906020019092919050505090509392505050565b600084600360008773ffffffffffffffffffffffffffffffffffffffff1673ffffffffffffffffffffffffffffffffffffffff16815260200190815260200160002060010160006101000a81548173ffffffffffffffffffffffffffffffffffffffff021916908373ffffffffffffffffffffffffffffffffffffffff1602179055508383600360008873ffffffffffffffffffffffffffffffffffffffff1673ffffffffffffffffffffffffffffffffffffffff168152602001908152602001600020600001919061201a92919061251d565b5081600360008773ffffffffffffffffffffffffffffffffffffffff1673ffffffffffffffffffffffffffffffffffffffff16815260200190815260200160002060040160006101000a81548163ffffffff02191690837c01000000000000000000000000000000000000000000000000000000009004021790555060048590806001815401808255809150509060018203906000526020600020016000909192909190916101000a81548173ffffffffffffffffffffffffffffffffffffffff021916908373ffffffffffffffffffffffffffffffffffffffff16021790555050600160048054905003600360008773ffffffffffffffffffffffffffffffffffffffff1673ffffffffffffffffffffffffffffffffffffffff168152602001908152602001600020600301819055508473ffffffffffffffffffffffffffffffffffffffff163373ffffffffffffffffffffffffffffffffffffffff167fef31d574c4891623cdff6ecbf44741580d806ddcb0b7aa1d96d9afbaa550750060405160405180910390a360019050949350505050565b600060107c0100000000000000000000000000000000000000000000000000000000027bffffffffffffffffffffffffffffffffffffffffffffffffffffffff191660107c010000000000000000000000000000000000000000000000000000000002600360003373ffffffffffffffffffffffffffffffffffffffff1673ffffffffffffffffffffffffffffffffffffffff16815260200190815260200160002060040160009054906101000a90047c010000000000000000000000000000000000000000000000000000000002167bffffffffffffffffffffffffffffffffffffffffffffffffffffffff191614151561233b576040517f08c379a00000000000000000000000000000000000000000000000000000000081526004018080602001828103825260278152602001807f5065726d697373696f6e204572726f723a205065726d697373696f6e546f427581526020017f726e546f6b656e0000000000000000000000000000000000000000000000000081525060400191505060405180910390fd5b8273ffffffffffffffffffffffffffffffffffffffff163373ffffffffffffffffffffffffffffffffffffffff167fab41a87bee05e2b9309d40c2695ccfd5a232863b03a6a07536f3466ed5b82b43846040518082815260200191505060405180910390a3600160009054906101000a900473ffffffffffffffffffffffffffffffffffffffff1673ffffffffffffffffffffffffffffffffffffffff166328e1a60484846040518363ffffffff167c0100000000000000000000000000000000000000000000000000000000028152600401808373ffffffffffffffffffffffffffffffffffffffff1673ffffffffffffffffffffffffffffffffffffffff16815260200182815260200192505050602060405180830381600087803b15801561246557600080fd5b505af1158015612479573d6000803e3d6000fd5b505050506040513d602081101561248f57600080fd5b810190808051906020019092919050505090509392505050565b8154818355818111156124d0578183600052602060002091820191016124cf919061259d565b5b505050565b50805460018160011615610100020316600290046000825580601f106124fb575061251a565b601f016020900490600052602060002090810190612519919061259d565b5b50565b828054600181600116156101000203166002900490600052602060002090601f016020900481019282601f1061255e57803560ff191683800117855561258c565b8280016001018555821561258c579182015b8281111561258b578235825591602001919060010190612570565b5b509050612599919061259d565b5090565b6125bf91905b808211156125bb5760008160009055506001016125a3565b5090565b9056fea165627a7a723058207edd690097efa21d066938602aef13ea4ca5d9fc092deef2deb0f1392a3964f40029",
  "source": "pragma solidity ^0.5.0;\n\nimport \"./DAO.sol\";\nimport \"./DAOToken.sol\";\nimport \"../spawn/SpawnDAO.sol\";\nimport \"../spawn/SpawnController.sol\";\n\ncontract DAOController {\n\n    struct Neuron {\n        string neuronName;\n        address neuronAddress;\n        DAOToken neuronToken;\n        uint listIndex;\n        bytes4 permissions;\n    }\n\n    DAO public dao;\n    DAOToken public daoToken;\n    address public daoController;\n\n    mapping(address => Neuron) neurons;\n    address[] public neuronList;\n\n    event MintTokens (address indexed _sender, address indexed _beneficiary, uint256 _amount);\n    event BurnTokens (address indexed _sender, uint256 _amount);\n    event BurnTokensFrom (address indexed _sender, address indexed _account, uint256 _amount);\n    event ActivateNeuron (address indexed _sender, address indexed _neuron);\n    event DeactivateNeuron (address indexed _sender, address indexed neuron);\n\n    constructor(DAO _dao) public {\n        dao = _dao;\n        daoToken = dao.daoToken();\n    }\n\n    function getName() public view PermissionToTransferToken() returns (string memory) {\n        return dao.daoName();\n    }\n\n    function getNeurons() public view returns(address[] memory) {\n        return neuronList;\n    }\n\n    function getNeuron(address _neuronAddress) public view returns (string memory, uint, bytes4) {\n        return(neurons[_neuronAddress].neuronName, neurons[_neuronAddress].listIndex, neurons[_neuronAddress].permissions);\n    }\n\n    function activateNeuron (address _neuronAddress, string calldata _neuronName, bytes4 _permissions)\n    external\n    // PermissionToActivateNeuron()\n    returns(bool) {\n        neurons[_neuronAddress].neuronAddress = _neuronAddress;\n        neurons[_neuronAddress].neuronName = _neuronName;\n        neurons[_neuronAddress].permissions = _permissions;\n        neuronList.push(_neuronAddress);\n        neurons[_neuronAddress].listIndex = neuronList.length-1;\n        emit ActivateNeuron (msg.sender, _neuronAddress);\n        return true;\n    }\n\n    function deactivateNeuron(address _neuronAddress)\n    external\n    PermissionToDeactivateNeuron()\n    returns(bool) {\n        uint rowToDelete = neurons[_neuronAddress].listIndex;\n        address rowToMove = neuronList[neuronList.length-1];\n        neuronList[rowToDelete] = rowToMove;\n        neurons[rowToMove].listIndex = rowToDelete;\n        neuronList.length--;\n        delete neurons[_neuronAddress];\n        emit DeactivateNeuron(msg.sender, _neuronAddress);\n        return true;\n    }\n\n    function mintTokens(DAO _dao, address _beneficiary, uint256 _amount)\n    external\n    // PermissionToMintToken()\n    returns(bool)\n    {\n        emit MintTokens(msg.sender, _beneficiary, _amount); //add isvalidDao\n        return daoToken.Mint(_beneficiary, _amount);\n    }\n\n    function burnTokens (address _dao, uint256 _amount)\n    external //add isvalidDao\n    PermissionToBurnToken()\n    returns(bool)\n    {\n        emit BurnTokens(msg.sender, _amount);\n        return daoToken.Burn(_amount);\n    }\n\n    function burnTokensFrom (address _dao, address _account, uint256 _amount)\n    external //add isvalidDao\n    PermissionToBurnToken()\n    returns(bool)\n    {\n        emit BurnTokensFrom(msg.sender, _account, _amount);\n        return daoToken.BurnFrom(_account, _amount);\n    }\n\n    function externalTokenTransfer(DAOToken _externalToken, address _to, uint256 _value)\n    external\n    PermissionToBurnToken()\n    returns(bool)\n    {\n        return dao.externalTokenTransfer(_externalToken, _to, _value);\n    }\n\n    function externalTokenTransferFrom(DAOToken _externalToken, address _from, address _to, uint256 _value)\n    external\n    PermissionToTransferTokenFrom()\n    returns(bool)\n    {\n        return dao.externalTokenTransferFrom(_externalToken, _from, _to, _value);\n    }\n\n    function externalTokenApproval(DAOToken _externalToken, address _spender, uint256 _value)\n    external\n    PermissionToApproveToken()\n    returns(bool)\n    {\n        return dao.externalTokenApproval(_externalToken, _spender, _value);\n    }\n\n    // Need to Implement: upgradeController\n\n    // Modifiers\n\n    modifier isActiveNeuron() {\n        require(neurons[msg.sender].neuronAddress == msg.sender, \"Permissiono Error: Neuron not Active\");\n        _;\n    }\n\n    modifier PermissionToActivateNeuron() {\n        require(neurons[msg.sender].permissions&bytes4(0x00000010) == bytes4(0x00000010), \"Permission Error: PermissionToActivateNeuron\");\n        _;\n    }\n\n    modifier PermissionToDeactivateNeuron() {\n        require(neurons[msg.sender].permissions&bytes4(0x00000010) == bytes4(0x00000010), \"Permission Error: PermissionToDeactivateNeuron\");\n        _;\n    }\n\n    modifier PermissionToMintToken() {\n        require(neurons[msg.sender].permissions&bytes4(0x00000010) == bytes4(0x00000010), \"Permission Error: PermissionToMintToken\");\n        _;\n    }\n\n    modifier PermissionToBurnToken() {\n        require(neurons[msg.sender].permissions&bytes4(0x00000010) == bytes4(0x00000010), \"Permission Error: PermissionToBurnToken\");\n        _;\n    }\n\n    modifier PermissionToTransferToken() {\n        require(neurons[msg.sender].permissions&bytes4(0x00000010) == bytes4(0x00000010), \"Permission Error: PermissionToTransferToken\");\n        _;\n    }\n\n    modifier PermissionToTransferTokenFrom() {\n        require(neurons[msg.sender].permissions&bytes4(0x00000010) == bytes4(0x00000010), \"Permission Error: PermissionToTransferTokenFrom\");\n        _;\n    }\n\n    modifier PermissionToApproveToken() {\n        require(neurons[msg.sender].permissions&bytes4(0x00000010) == bytes4(0x00000010), \"Permission Error: PermissionToApproveToken\");\n        _;\n    }\n}",
  "sourcePath": "/Users/neo/Code/dz-0.01/contracts/controller/DAOController.sol",
  "compiler": {
    "name": "solc",
    "version": "0.5.0+commit.1d4f565a.Emscripten.clang"
  },
  "schemaVersion": "3.0.16",
  "updatedAt": "2019-09-18T00:51:49.674Z",
  "devdoc": {
    "methods": {}
  },
  "userdoc": {
    "methods": {}
  }
}