{
  "contractName": "DAOController",
  "abi": [
    {
      "constant": true,
      "inputs": [],
      "name": "dao",
      "outputs": [
        {
          "name": "",
          "type": "address"
        }
      ],
      "payable": false,
      "stateMutability": "view",
      "type": "function",
      "signature": "0x4162169f"
    },
    {
      "constant": true,
      "inputs": [
        {
          "name": "",
          "type": "uint256"
        }
      ],
      "name": "neuronList",
      "outputs": [
        {
          "name": "",
          "type": "address"
        }
      ],
      "payable": false,
      "stateMutability": "view",
      "type": "function",
      "signature": "0x431bd03b"
    },
    {
      "constant": true,
      "inputs": [],
      "name": "votingToken",
      "outputs": [
        {
          "name": "",
          "type": "address"
        }
      ],
      "payable": false,
      "stateMutability": "view",
      "type": "function",
      "signature": "0xb0340123"
    },
    {
      "constant": true,
      "inputs": [],
      "name": "valueToken",
      "outputs": [
        {
          "name": "",
          "type": "address"
        }
      ],
      "payable": false,
      "stateMutability": "view",
      "type": "function",
      "signature": "0xeffff82f"
    },
    {
      "inputs": [
        {
          "name": "_dao",
          "type": "address"
        }
      ],
      "payable": false,
      "stateMutability": "nonpayable",
      "type": "constructor"
    },
    {
      "anonymous": false,
      "inputs": [
        {
          "indexed": true,
          "name": "_sender",
          "type": "address"
        },
        {
          "indexed": true,
          "name": "_beneficiary",
          "type": "address"
        },
        {
          "indexed": false,
          "name": "_amount",
          "type": "uint256"
        }
      ],
      "name": "MintTokens",
      "type": "event",
      "signature": "0x21f9c9a1a1f9a311a50f15fec5c1faa9e21fc9edf964f0fdecba5bd490484c5e"
    },
    {
      "constant": true,
      "inputs": [],
      "name": "getName",
      "outputs": [
        {
          "name": "",
          "type": "bytes32"
        }
      ],
      "payable": false,
      "stateMutability": "view",
      "type": "function",
      "signature": "0x17d7de7c"
    },
    {
      "constant": true,
      "inputs": [],
      "name": "getNeurons",
      "outputs": [
        {
          "name": "",
          "type": "address[]"
        }
      ],
      "payable": false,
      "stateMutability": "view",
      "type": "function",
      "signature": "0x0744ef37"
    },
    {
      "constant": true,
      "inputs": [
        {
          "name": "_neuronAddress",
          "type": "address"
        }
      ],
      "name": "getNeuron",
      "outputs": [
        {
          "name": "",
          "type": "string"
        },
        {
          "name": "",
          "type": "uint256"
        },
        {
          "name": "",
          "type": "bytes4"
        }
      ],
      "payable": false,
      "stateMutability": "view",
      "type": "function",
      "signature": "0x9d41661f"
    },
    {
      "constant": false,
      "inputs": [
        {
          "name": "_neuronAddress",
          "type": "address"
        },
        {
          "name": "_neuronName",
          "type": "string"
        },
        {
          "name": "_permissions",
          "type": "bytes4"
        }
      ],
      "name": "activateNeuron",
      "outputs": [
        {
          "name": "",
          "type": "bool"
        }
      ],
      "payable": false,
      "stateMutability": "nonpayable",
      "type": "function",
      "signature": "0xf1fb5bcb"
    },
    {
      "constant": false,
      "inputs": [
        {
          "name": "_neuronAddress",
          "type": "address"
        }
      ],
      "name": "deactivateNeuron",
      "outputs": [
        {
          "name": "",
          "type": "bool"
        }
      ],
      "payable": false,
      "stateMutability": "nonpayable",
      "type": "function",
      "signature": "0xd6be4d27"
    },
    {
      "constant": false,
      "inputs": [
        {
          "name": "_avatar",
          "type": "address"
        },
        {
          "name": "_beneficiary",
          "type": "address"
        },
        {
          "name": "_amount",
          "type": "uint256"
        }
      ],
      "name": "mintTokens",
      "outputs": [
        {
          "name": "",
          "type": "bool"
        }
      ],
      "payable": false,
      "stateMutability": "nonpayable",
      "type": "function",
      "signature": "0x6fc98ee1"
    },
    {
      "constant": false,
      "inputs": [
        {
          "name": "_to",
          "type": "address"
        },
        {
          "name": "_value",
          "type": "uint256"
        }
      ],
      "name": "externalTokenTransfer",
      "outputs": [
        {
          "name": "",
          "type": "bool"
        }
      ],
      "payable": false,
      "stateMutability": "nonpayable",
      "type": "function",
      "signature": "0x3395bfd9"
    },
    {
      "constant": false,
      "inputs": [
        {
          "name": "_externalToken",
          "type": "address"
        },
        {
          "name": "_from",
          "type": "address"
        },
        {
          "name": "_to",
          "type": "address"
        },
        {
          "name": "_value",
          "type": "uint256"
        }
      ],
      "name": "externalTokenTransferFrom",
      "outputs": [
        {
          "name": "",
          "type": "bool"
        }
      ],
      "payable": false,
      "stateMutability": "nonpayable",
      "type": "function",
      "signature": "0xb756d5a2"
    },
    {
      "constant": false,
      "inputs": [
        {
          "name": "_externalToken",
          "type": "address"
        },
        {
          "name": "_spender",
          "type": "address"
        },
        {
          "name": "_value",
          "type": "uint256"
        }
      ],
      "name": "externalTokenApproval",
      "outputs": [
        {
          "name": "",
          "type": "bool"
        }
      ],
      "payable": false,
      "stateMutability": "nonpayable",
      "type": "function",
      "signature": "0xab751f71"
    }
  ],
  "bytecode": "0x608060405234801561001057600080fd5b50604051602080611a198339810180604052602081101561003057600080fd5b8101908080519060200190929190505050806000806101000a81548173ffffffffffffffffffffffffffffffffffffffff021916908373ffffffffffffffffffffffffffffffffffffffff1602179055506000809054906101000a900473ffffffffffffffffffffffffffffffffffffffff1673ffffffffffffffffffffffffffffffffffffffff1663effff82f6040518163ffffffff167c010000000000000000000000000000000000000000000000000000000002815260040160206040518083038186803b15801561010457600080fd5b505afa158015610118573d6000803e3d6000fd5b505050506040513d602081101561012e57600080fd5b8101908080519060200190929190505050600160006101000a81548173ffffffffffffffffffffffffffffffffffffffff021916908373ffffffffffffffffffffffffffffffffffffffff1602179055506000809054906101000a900473ffffffffffffffffffffffffffffffffffffffff1673ffffffffffffffffffffffffffffffffffffffff1663b03401236040518163ffffffff167c010000000000000000000000000000000000000000000000000000000002815260040160206040518083038186803b15801561020257600080fd5b505afa158015610216573d6000803e3d6000fd5b505050506040513d602081101561022c57600080fd5b8101908080519060200190929190505050600260006101000a81548173ffffffffffffffffffffffffffffffffffffffff021916908373ffffffffffffffffffffffffffffffffffffffff1602179055505061178c8061028d6000396000f3fe6080604052600436106100c5576000357c0100000000000000000000000000000000000000000000000000000000900463ffffffff1680630744ef37146100ca57806317d7de7c146101365780633395bfd9146101615780634162169f146101d4578063431bd03b1461022b5780636fc98ee1146102a65780639d41661f14610339578063ab751f711461044f578063b0340123146104e2578063b756d5a214610539578063d6be4d27146105ec578063effff82f14610655578063f1fb5bcb146106ac575b600080fd5b3480156100d657600080fd5b506100df610793565b6040518080602001828103825283818151815260200191508051906020019060200280838360005b83811015610122578082015181840152602081019050610107565b505050509050019250505060405180910390f35b34801561014257600080fd5b5061014b610821565b6040518082815260200191505060405180910390f35b34801561016d57600080fd5b506101ba6004803603604081101561018457600080fd5b81019080803573ffffffffffffffffffffffffffffffffffffffff169060200190929190803590602001909291905050506109df565b604051808215151515815260200191505060405180910390f35b3480156101e057600080fd5b506101e9610ae8565b604051808273ffffffffffffffffffffffffffffffffffffffff1673ffffffffffffffffffffffffffffffffffffffff16815260200191505060405180910390f35b34801561023757600080fd5b506102646004803603602081101561024e57600080fd5b8101908080359060200190929190505050610b0d565b604051808273ffffffffffffffffffffffffffffffffffffffff1673ffffffffffffffffffffffffffffffffffffffff16815260200191505060405180910390f35b3480156102b257600080fd5b5061031f600480360360608110156102c957600080fd5b81019080803573ffffffffffffffffffffffffffffffffffffffff169060200190929190803573ffffffffffffffffffffffffffffffffffffffff16906020019092919080359060200190929190505050610b4b565b604051808215151515815260200191505060405180910390f35b34801561034557600080fd5b506103886004803603602081101561035c57600080fd5b81019080803573ffffffffffffffffffffffffffffffffffffffff169060200190929190505050610cbb565b6040518080602001848152602001837bffffffffffffffffffffffffffffffffffffffffffffffffffffffff19167bffffffffffffffffffffffffffffffffffffffffffffffffffffffff19168152602001828103825285818151815260200191508051906020019080838360005b838110156104125780820151818401526020810190506103f7565b50505050905090810190601f16801561043f5780820380516001836020036101000a031916815260200191505b5094505050505060405180910390f35b34801561045b57600080fd5b506104c86004803603606081101561047257600080fd5b81019080803573ffffffffffffffffffffffffffffffffffffffff169060200190929190803573ffffffffffffffffffffffffffffffffffffffff16906020019092919080359060200190929190505050610e5a565b604051808215151515815260200191505060405180910390f35b3480156104ee57600080fd5b506104f7610f98565b604051808273ffffffffffffffffffffffffffffffffffffffff1673ffffffffffffffffffffffffffffffffffffffff16815260200191505060405180910390f35b34801561054557600080fd5b506105d26004803603608081101561055c57600080fd5b81019080803573ffffffffffffffffffffffffffffffffffffffff169060200190929190803573ffffffffffffffffffffffffffffffffffffffff169060200190929190803573ffffffffffffffffffffffffffffffffffffffff16906020019092919080359060200190929190505050610fbe565b604051808215151515815260200191505060405180910390f35b3480156105f857600080fd5b5061063b6004803603602081101561060f57600080fd5b81019080803573ffffffffffffffffffffffffffffffffffffffff16906020019092919050505061122a565b604051808215151515815260200191505060405180910390f35b34801561066157600080fd5b5061066a611410565b604051808273ffffffffffffffffffffffffffffffffffffffff1673ffffffffffffffffffffffffffffffffffffffff16815260200191505060405180910390f35b3480156106b857600080fd5b50610779600480360360608110156106cf57600080fd5b81019080803573ffffffffffffffffffffffffffffffffffffffff1690602001909291908035906020019064010000000081111561070c57600080fd5b82018360208201111561071e57600080fd5b8035906020019184600183028401116401000000008311171561074057600080fd5b909192939192939080357bffffffffffffffffffffffffffffffffffffffffffffffffffffffff19169060200190929190505050611436565b604051808215151515815260200191505060405180910390f35b6060600480548060200260200160405190810160405280929190818152602001828054801561081757602002820191906000526020600020905b8160009054906101000a900473ffffffffffffffffffffffffffffffffffffffff1673ffffffffffffffffffffffffffffffffffffffff16815260200190600101908083116107cd575b5050505050905090565b600060107c0100000000000000000000000000000000000000000000000000000000027bffffffffffffffffffffffffffffffffffffffffffffffffffffffff191660107c010000000000000000000000000000000000000000000000000000000002600360003373ffffffffffffffffffffffffffffffffffffffff1673ffffffffffffffffffffffffffffffffffffffff16815260200190815260200160002060030160009054906101000a90047c010000000000000000000000000000000000000000000000000000000002167bffffffffffffffffffffffffffffffffffffffffffffffffffffffff191614151561091c57600080fd5b6000809054906101000a900473ffffffffffffffffffffffffffffffffffffffff1673ffffffffffffffffffffffffffffffffffffffff1663489769366040518163ffffffff167c010000000000000000000000000000000000000000000000000000000002815260040160206040518083038186803b15801561099f57600080fd5b505afa1580156109b3573d6000803e3d6000fd5b505050506040513d60208110156109c957600080fd5b8101908080519060200190929190505050905090565b60008060009054906101000a900473ffffffffffffffffffffffffffffffffffffffff1673ffffffffffffffffffffffffffffffffffffffff16633395bfd984846040518363ffffffff167c0100000000000000000000000000000000000000000000000000000000028152600401808373ffffffffffffffffffffffffffffffffffffffff1673ffffffffffffffffffffffffffffffffffffffff16815260200182815260200192505050602060405180830381600087803b158015610aa557600080fd5b505af1158015610ab9573d6000803e3d6000fd5b505050506040513d6020811015610acf57600080fd5b8101908080519060200190929190505050905092915050565b6000809054906101000a900473ffffffffffffffffffffffffffffffffffffffff1681565b600481815481101515610b1c57fe5b906000526020600020016000915054906101000a900473ffffffffffffffffffffffffffffffffffffffff1681565b60008273ffffffffffffffffffffffffffffffffffffffff163373ffffffffffffffffffffffffffffffffffffffff167f21f9c9a1a1f9a311a50f15fec5c1faa9e21fc9edf964f0fdecba5bd490484c5e846040518082815260200191505060405180910390a3600160009054906101000a900473ffffffffffffffffffffffffffffffffffffffff1673ffffffffffffffffffffffffffffffffffffffff16630f6798a584846040518363ffffffff167c0100000000000000000000000000000000000000000000000000000000028152600401808373ffffffffffffffffffffffffffffffffffffffff1673ffffffffffffffffffffffffffffffffffffffff16815260200182815260200192505050602060405180830381600087803b158015610c7757600080fd5b505af1158015610c8b573d6000803e3d6000fd5b505050506040513d6020811015610ca157600080fd5b810190808051906020019092919050505090509392505050565b6060600080600360008573ffffffffffffffffffffffffffffffffffffffff1673ffffffffffffffffffffffffffffffffffffffff168152602001908152602001600020600001600360008673ffffffffffffffffffffffffffffffffffffffff1673ffffffffffffffffffffffffffffffffffffffff16815260200190815260200160002060020154600360008773ffffffffffffffffffffffffffffffffffffffff1673ffffffffffffffffffffffffffffffffffffffff16815260200190815260200160002060030160009054906101000a90047c010000000000000000000000000000000000000000000000000000000002828054600181600116156101000203166002900480601f016020809104026020016040519081016040528092919081815260200182805460018160011615610100020316600290048015610e465780601f10610e1b57610100808354040283529160200191610e46565b820191906000526020600020905b815481529060010190602001808311610e2957829003601f168201915b505050505092509250925092509193909250565b60008060009054906101000a900473ffffffffffffffffffffffffffffffffffffffff1673ffffffffffffffffffffffffffffffffffffffff1663ab751f718585856040518463ffffffff167c0100000000000000000000000000000000000000000000000000000000028152600401808473ffffffffffffffffffffffffffffffffffffffff1673ffffffffffffffffffffffffffffffffffffffff1681526020018373ffffffffffffffffffffffffffffffffffffffff1673ffffffffffffffffffffffffffffffffffffffff1681526020018281526020019350505050602060405180830381600087803b158015610f5457600080fd5b505af1158015610f68573d6000803e3d6000fd5b505050506040513d6020811015610f7e57600080fd5b810190808051906020019092919050505090509392505050565b600260009054906101000a900473ffffffffffffffffffffffffffffffffffffffff1681565b600060107c0100000000000000000000000000000000000000000000000000000000027bffffffffffffffffffffffffffffffffffffffffffffffffffffffff191660107c010000000000000000000000000000000000000000000000000000000002600360003373ffffffffffffffffffffffffffffffffffffffff1673ffffffffffffffffffffffffffffffffffffffff16815260200190815260200160002060030160009054906101000a90047c010000000000000000000000000000000000000000000000000000000002167bffffffffffffffffffffffffffffffffffffffffffffffffffffffff19161415156110b957600080fd5b6000809054906101000a900473ffffffffffffffffffffffffffffffffffffffff1673ffffffffffffffffffffffffffffffffffffffff1663b756d5a2868686866040518563ffffffff167c0100000000000000000000000000000000000000000000000000000000028152600401808573ffffffffffffffffffffffffffffffffffffffff1673ffffffffffffffffffffffffffffffffffffffff1681526020018473ffffffffffffffffffffffffffffffffffffffff1673ffffffffffffffffffffffffffffffffffffffff1681526020018373ffffffffffffffffffffffffffffffffffffffff1673ffffffffffffffffffffffffffffffffffffffff168152602001828152602001945050505050602060405180830381600087803b1580156111e557600080fd5b505af11580156111f9573d6000803e3d6000fd5b505050506040513d602081101561120f57600080fd5b81019080805190602001909291905050509050949350505050565b600080600360008473ffffffffffffffffffffffffffffffffffffffff1673ffffffffffffffffffffffffffffffffffffffff1681526020019081526020016000206002015490506000600460016004805490500381548110151561128b57fe5b9060005260206000200160009054906101000a900473ffffffffffffffffffffffffffffffffffffffff169050806004838154811015156112c857fe5b9060005260206000200160006101000a81548173ffffffffffffffffffffffffffffffffffffffff021916908373ffffffffffffffffffffffffffffffffffffffff16021790555081600360008373ffffffffffffffffffffffffffffffffffffffff1673ffffffffffffffffffffffffffffffffffffffff16815260200190815260200160002060020181905550600480548091906001900361136c9190611647565b50600360008573ffffffffffffffffffffffffffffffffffffffff1673ffffffffffffffffffffffffffffffffffffffff168152602001908152602001600020600080820160006113bd9190611673565b6001820160006101000a81549073ffffffffffffffffffffffffffffffffffffffff021916905560028201600090556003820160006101000a81549063ffffffff02191690555050600192505050919050565b600160009054906101000a900473ffffffffffffffffffffffffffffffffffffffff1681565b600084600360008773ffffffffffffffffffffffffffffffffffffffff1673ffffffffffffffffffffffffffffffffffffffff16815260200190815260200160002060010160006101000a81548173ffffffffffffffffffffffffffffffffffffffff021916908373ffffffffffffffffffffffffffffffffffffffff1602179055508383600360008873ffffffffffffffffffffffffffffffffffffffff1673ffffffffffffffffffffffffffffffffffffffff168152602001908152602001600020600001919061150a9291906116bb565b5081600360008773ffffffffffffffffffffffffffffffffffffffff1673ffffffffffffffffffffffffffffffffffffffff16815260200190815260200160002060030160006101000a81548163ffffffff02191690837c01000000000000000000000000000000000000000000000000000000009004021790555060048590806001815401808255809150509060018203906000526020600020016000909192909190916101000a81548173ffffffffffffffffffffffffffffffffffffffff021916908373ffffffffffffffffffffffffffffffffffffffff16021790555050600160048054905003600360008773ffffffffffffffffffffffffffffffffffffffff1673ffffffffffffffffffffffffffffffffffffffff1681526020019081526020016000206002018190555060019050949350505050565b81548183558181111561166e5781836000526020600020918201910161166d919061173b565b5b505050565b50805460018160011615610100020316600290046000825580601f1061169957506116b8565b601f0160209004906000526020600020908101906116b7919061173b565b5b50565b828054600181600116156101000203166002900490600052602060002090601f016020900481019282601f106116fc57803560ff191683800117855561172a565b8280016001018555821561172a579182015b8281111561172957823582559160200191906001019061170e565b5b509050611737919061173b565b5090565b61175d91905b80821115611759576000816000905550600101611741565b5090565b9056fea165627a7a72305820c5804166fedc665d40d83f800e7338210b55794dfb75cd2da5fe1d7bc2b764a00029",
  "source": "pragma solidity ^0.5.0;\n\nimport \"./DAO.sol\";\nimport \"./SpawnDAO.sol\";\n\ncontract DAOController {\n\n    struct Neuron {\n        string neuronName;\n        address neuronAddress;\n        uint listPointer;\n        bytes4 permissions;\n    }\n\n    DAO public dao;\n    DAOToken public valueToken;\n    DAOToken public votingToken;\n\n    mapping(address => Neuron) neurons;\n    address[] public neuronList;\n\n    // event MintReputation (address indexed _sender, address indexed _to, uint256 _amount);\n    // event BurnReputation (address indexed _sender, address indexed _from, uint256 _amount);\n    event MintTokens (address indexed _sender, address indexed _beneficiary, uint256 _amount);\n    // event RegisterScheme (address indexed _sender, address indexed _scheme);\n    // event UnregisterScheme (address indexed _sender, address indexed _scheme);\n    // event UpgradeController(address indexed _oldController, address _newController);\n    // event AddGlobalConstraint(address indexed _globalConstraint, bytes32 _params, GlobalConstraintInterface.CallPhase _when);\n    // event RemoveGlobalConstraint(address indexed _globalConstraint, uint256 _index, bool _isPre);\n\n    constructor(DAO _dao) public {\n        dao = _dao;\n        valueToken = dao.valueToken();\n        votingToken = dao.votingToken();\n        //schemes[msg.sender] = Scheme({paramsHash: bytes32(0), permissions: bytes4(0x0000001F)});\n    }\n\n    function getName() public view PermissionToTransferToken() returns (bytes32) {\n        return dao.daoName();\n    }\n\n\n    function getNeurons() view public returns(address[] memory) {\n        return neuronList;\n    }\n\n    function getNeuron(address _neuronAddress) view public returns (string memory, uint, bytes4) {\n        return(neurons[_neuronAddress].neuronName, neurons[_neuronAddress].listPointer, neurons[_neuronAddress].permissions);\n    }\n\n    function activateNeuron (address _neuronAddress, string calldata _neuronName, bytes4 _permissions) external returns(bool) {\n        neurons[_neuronAddress].neuronAddress = _neuronAddress;\n        neurons[_neuronAddress].neuronName = _neuronName;\n        neurons[_neuronAddress].permissions = _permissions;\n        neuronList.push(_neuronAddress);\n        neurons[_neuronAddress].listPointer = neuronList.length-1;\n        return true;\n    }\n\n    function deactivateNeuron(address _neuronAddress) external returns(bool) {\n        uint rowToDelete = neurons[_neuronAddress].listPointer;\n        address rowToMove = neuronList[neuronList.length-1];\n        neuronList[rowToDelete] = rowToMove;\n        neurons[rowToMove].listPointer = rowToDelete;\n        neuronList.length--;\n        delete neurons[_neuronAddress];\n        return true;\n    }\n\n    // burn burnTokens (address indexed _sender, address indexed _beneficiary, uint256 _amount);\n    // upgradeController\n    // add Constraint\n    // remove Constraint\n\n    function mintTokens(address _avatar, address _beneficiary, uint256 _amount)\n    external\n    returns(bool)\n    {\n        emit MintTokens(msg.sender, _beneficiary, _amount);\n        return valueToken.Mint(_beneficiary, _amount);\n    }\n\n    function externalTokenTransfer(address _to, uint256 _value)\n    external\n    returns(bool)\n    {\n        return dao.externalTokenTransfer(_to, _value);\n    }\n\n    function externalTokenTransferFrom(IERC20 _externalToken, address _from, address _to, uint256 _value)\n    external\n    PermissionToTransferToken()\n    returns(bool)\n    {\n        return dao.externalTokenTransferFrom(_externalToken, _from, _to, _value);\n    }\n\n    function externalTokenApproval(IERC20 _externalToken, address _spender, uint256 _value)\n    external\n    returns(bool)\n    {\n        return dao.externalTokenApproval(_externalToken, _spender, _value);\n    }\n\n    // Modifiers\n\n    modifier isActiveNeuron() {\n        require(neurons[msg.sender].neuronAddress == msg.sender);\n        _;\n    }\n\n    modifier PermissionToMintToken() {\n        require(neurons[msg.sender].permissions&bytes4(0x00000010) == bytes4(0x00000010));\n        _;\n    }\n\n    modifier PermissionToBurnToken() {\n        require(neurons[msg.sender].permissions&bytes4(0x00000010) == bytes4(0x00000010));\n        _;\n    }\n\n    modifier PermissionToTransferToken() {\n        require(neurons[msg.sender].permissions&bytes4(0x00000010) == bytes4(0x00000010));\n        _;\n    }\n\n    modifier PermissionToApproveToken() {\n        require(neurons[msg.sender].permissions&bytes4(0x00000010) == bytes4(0x00000010));\n        _;\n    }\n\n    modifier PermissionToActivateNeuron() {\n        require(neurons[msg.sender].permissions&bytes4(0x00000010) == bytes4(0x00000010));\n        _;\n    }\n\n    modifier PermissionToDeactivateNeuron() {\n        require(neurons[msg.sender].permissions&bytes4(0x00000010) == bytes4(0x00000010));\n        _;\n    }\n\n}",
  "sourcePath": "/Users/neo/Code/dz-0.01/contracts/DAOController.sol",
  "compiler": {
    "name": "solc",
    "version": "0.5.0+commit.1d4f565a.Emscripten.clang"
  },
  "schemaVersion": "3.0.0",
  "updatedAt": "2019-08-15T22:45:12.986Z",
  "devdoc": {
    "methods": {}
  },
  "userdoc": {
    "methods": {}
  }
}