{
  "contractName": "DAOController",
  "abi": [
    {
      "constant": true,
      "inputs": [],
      "name": "dao",
      "outputs": [
        {
          "name": "",
          "type": "address"
        }
      ],
      "payable": false,
      "stateMutability": "view",
      "type": "function",
      "signature": "0x4162169f"
    },
    {
      "constant": true,
      "inputs": [
        {
          "name": "",
          "type": "uint256"
        }
      ],
      "name": "neuronList",
      "outputs": [
        {
          "name": "",
          "type": "address"
        }
      ],
      "payable": false,
      "stateMutability": "view",
      "type": "function",
      "signature": "0x431bd03b"
    },
    {
      "constant": true,
      "inputs": [],
      "name": "votingToken",
      "outputs": [
        {
          "name": "",
          "type": "address"
        }
      ],
      "payable": false,
      "stateMutability": "view",
      "type": "function",
      "signature": "0xb0340123"
    },
    {
      "constant": true,
      "inputs": [],
      "name": "valueToken",
      "outputs": [
        {
          "name": "",
          "type": "address"
        }
      ],
      "payable": false,
      "stateMutability": "view",
      "type": "function",
      "signature": "0xeffff82f"
    },
    {
      "inputs": [
        {
          "name": "_dao",
          "type": "address"
        }
      ],
      "payable": false,
      "stateMutability": "nonpayable",
      "type": "constructor"
    },
    {
      "anonymous": false,
      "inputs": [
        {
          "indexed": true,
          "name": "_sender",
          "type": "address"
        },
        {
          "indexed": true,
          "name": "_beneficiary",
          "type": "address"
        },
        {
          "indexed": false,
          "name": "_amount",
          "type": "uint256"
        }
      ],
      "name": "MintTokens",
      "type": "event",
      "signature": "0x21f9c9a1a1f9a311a50f15fec5c1faa9e21fc9edf964f0fdecba5bd490484c5e"
    },
    {
      "anonymous": false,
      "inputs": [
        {
          "indexed": true,
          "name": "_sender",
          "type": "address"
        },
        {
          "indexed": true,
          "name": "_beneficiary",
          "type": "address"
        },
        {
          "indexed": false,
          "name": "_amount",
          "type": "uint256"
        }
      ],
      "name": "BurnTokens",
      "type": "event",
      "signature": "0xa02fa7af120761e5cdeff8bc117c44fd425d0f51fd27155746f84421d87d18e6"
    },
    {
      "anonymous": false,
      "inputs": [
        {
          "indexed": true,
          "name": "_sender",
          "type": "address"
        },
        {
          "indexed": true,
          "name": "_neuron",
          "type": "address"
        }
      ],
      "name": "ActivateNeuron",
      "type": "event",
      "signature": "0xef31d574c4891623cdff6ecbf44741580d806ddcb0b7aa1d96d9afbaa5507500"
    },
    {
      "anonymous": false,
      "inputs": [
        {
          "indexed": true,
          "name": "_sender",
          "type": "address"
        },
        {
          "indexed": true,
          "name": "neuron",
          "type": "address"
        }
      ],
      "name": "DeactivateNeuron",
      "type": "event",
      "signature": "0x5f200b531fbee1a78c85e219188d47006568d47fcf79d4d74fb21fce7a9b0f14"
    },
    {
      "constant": true,
      "inputs": [],
      "name": "getName",
      "outputs": [
        {
          "name": "",
          "type": "bytes32"
        }
      ],
      "payable": false,
      "stateMutability": "view",
      "type": "function",
      "signature": "0x17d7de7c"
    },
    {
      "constant": true,
      "inputs": [],
      "name": "getNeurons",
      "outputs": [
        {
          "name": "",
          "type": "address[]"
        }
      ],
      "payable": false,
      "stateMutability": "view",
      "type": "function",
      "signature": "0x0744ef37"
    },
    {
      "constant": true,
      "inputs": [
        {
          "name": "_neuronAddress",
          "type": "address"
        }
      ],
      "name": "getNeuron",
      "outputs": [
        {
          "name": "",
          "type": "string"
        },
        {
          "name": "",
          "type": "uint256"
        },
        {
          "name": "",
          "type": "bytes4"
        }
      ],
      "payable": false,
      "stateMutability": "view",
      "type": "function",
      "signature": "0x9d41661f"
    },
    {
      "constant": false,
      "inputs": [
        {
          "name": "_neuronAddress",
          "type": "address"
        },
        {
          "name": "_neuronName",
          "type": "string"
        },
        {
          "name": "_permissions",
          "type": "bytes4"
        }
      ],
      "name": "activateNeuron",
      "outputs": [
        {
          "name": "",
          "type": "bool"
        }
      ],
      "payable": false,
      "stateMutability": "nonpayable",
      "type": "function",
      "signature": "0xf1fb5bcb"
    },
    {
      "constant": false,
      "inputs": [
        {
          "name": "_neuronAddress",
          "type": "address"
        }
      ],
      "name": "deactivateNeuron",
      "outputs": [
        {
          "name": "",
          "type": "bool"
        }
      ],
      "payable": false,
      "stateMutability": "nonpayable",
      "type": "function",
      "signature": "0xd6be4d27"
    },
    {
      "constant": false,
      "inputs": [
        {
          "name": "_avatar",
          "type": "address"
        },
        {
          "name": "_beneficiary",
          "type": "address"
        },
        {
          "name": "_amount",
          "type": "uint256"
        }
      ],
      "name": "mintTokens",
      "outputs": [
        {
          "name": "",
          "type": "bool"
        }
      ],
      "payable": false,
      "stateMutability": "nonpayable",
      "type": "function",
      "signature": "0x6fc98ee1"
    },
    {
      "constant": false,
      "inputs": [
        {
          "name": "_externalToken",
          "type": "address"
        },
        {
          "name": "_to",
          "type": "address"
        },
        {
          "name": "_value",
          "type": "uint256"
        }
      ],
      "name": "externalTokenTransfer",
      "outputs": [
        {
          "name": "",
          "type": "bool"
        }
      ],
      "payable": false,
      "stateMutability": "nonpayable",
      "type": "function",
      "signature": "0xdab0efff"
    },
    {
      "constant": false,
      "inputs": [
        {
          "name": "_externalToken",
          "type": "address"
        },
        {
          "name": "_from",
          "type": "address"
        },
        {
          "name": "_to",
          "type": "address"
        },
        {
          "name": "_value",
          "type": "uint256"
        }
      ],
      "name": "externalTokenTransferFrom",
      "outputs": [
        {
          "name": "",
          "type": "bool"
        }
      ],
      "payable": false,
      "stateMutability": "nonpayable",
      "type": "function",
      "signature": "0xb756d5a2"
    },
    {
      "constant": false,
      "inputs": [
        {
          "name": "_externalToken",
          "type": "address"
        },
        {
          "name": "_spender",
          "type": "address"
        },
        {
          "name": "_value",
          "type": "uint256"
        }
      ],
      "name": "externalTokenApproval",
      "outputs": [
        {
          "name": "",
          "type": "bool"
        }
      ],
      "payable": false,
      "stateMutability": "nonpayable",
      "type": "function",
      "signature": "0xab751f71"
    }
  ],
  "bytecode": "0x608060405234801561001057600080fd5b5060405160208062001c428339810180604052602081101561003157600080fd5b8101908080519060200190929190505050806000806101000a81548173ffffffffffffffffffffffffffffffffffffffff021916908373ffffffffffffffffffffffffffffffffffffffff1602179055506000809054906101000a900473ffffffffffffffffffffffffffffffffffffffff1673ffffffffffffffffffffffffffffffffffffffff1663effff82f6040518163ffffffff167c010000000000000000000000000000000000000000000000000000000002815260040160206040518083038186803b15801561010557600080fd5b505afa158015610119573d6000803e3d6000fd5b505050506040513d602081101561012f57600080fd5b8101908080519060200190929190505050600160006101000a81548173ffffffffffffffffffffffffffffffffffffffff021916908373ffffffffffffffffffffffffffffffffffffffff1602179055506000809054906101000a900473ffffffffffffffffffffffffffffffffffffffff1673ffffffffffffffffffffffffffffffffffffffff1663b03401236040518163ffffffff167c010000000000000000000000000000000000000000000000000000000002815260040160206040518083038186803b15801561020357600080fd5b505afa158015610217573d6000803e3d6000fd5b505050506040513d602081101561022d57600080fd5b8101908080519060200190929190505050600260006101000a81548173ffffffffffffffffffffffffffffffffffffffff021916908373ffffffffffffffffffffffffffffffffffffffff160217905550506119b3806200028f6000396000f3fe6080604052600436106100c5576000357c0100000000000000000000000000000000000000000000000000000000900463ffffffff1680630744ef37146100ca57806317d7de7c146101365780634162169f14610161578063431bd03b146101b85780636fc98ee1146102335780639d41661f146102c6578063ab751f71146103dc578063b03401231461046f578063b756d5a2146104c6578063d6be4d2714610579578063dab0efff146105e2578063effff82f14610675578063f1fb5bcb146106cc575b600080fd5b3480156100d657600080fd5b506100df6107b3565b6040518080602001828103825283818151815260200191508051906020019060200280838360005b83811015610122578082015181840152602081019050610107565b505050509050019250505060405180910390f35b34801561014257600080fd5b5061014b610841565b6040518082815260200191505060405180910390f35b34801561016d57600080fd5b50610176610a8e565b604051808273ffffffffffffffffffffffffffffffffffffffff1673ffffffffffffffffffffffffffffffffffffffff16815260200191505060405180910390f35b3480156101c457600080fd5b506101f1600480360360208110156101db57600080fd5b8101908080359060200190929190505050610ab3565b604051808273ffffffffffffffffffffffffffffffffffffffff1673ffffffffffffffffffffffffffffffffffffffff16815260200191505060405180910390f35b34801561023f57600080fd5b506102ac6004803603606081101561025657600080fd5b81019080803573ffffffffffffffffffffffffffffffffffffffff169060200190929190803573ffffffffffffffffffffffffffffffffffffffff16906020019092919080359060200190929190505050610af1565b604051808215151515815260200191505060405180910390f35b3480156102d257600080fd5b50610315600480360360208110156102e957600080fd5b81019080803573ffffffffffffffffffffffffffffffffffffffff169060200190929190505050610c61565b6040518080602001848152602001837bffffffffffffffffffffffffffffffffffffffffffffffffffffffff19167bffffffffffffffffffffffffffffffffffffffffffffffffffffffff19168152602001828103825285818151815260200191508051906020019080838360005b8381101561039f578082015181840152602081019050610384565b50505050905090810190601f1680156103cc5780820380516001836020036101000a031916815260200191505b5094505050505060405180910390f35b3480156103e857600080fd5b50610455600480360360608110156103ff57600080fd5b81019080803573ffffffffffffffffffffffffffffffffffffffff169060200190929190803573ffffffffffffffffffffffffffffffffffffffff16906020019092919080359060200190929190505050610e00565b604051808215151515815260200191505060405180910390f35b34801561047b57600080fd5b50610484610f3e565b604051808273ffffffffffffffffffffffffffffffffffffffff1673ffffffffffffffffffffffffffffffffffffffff16815260200191505060405180910390f35b3480156104d257600080fd5b5061055f600480360360808110156104e957600080fd5b81019080803573ffffffffffffffffffffffffffffffffffffffff169060200190929190803573ffffffffffffffffffffffffffffffffffffffff169060200190929190803573ffffffffffffffffffffffffffffffffffffffff16906020019092919080359060200190929190505050610f64565b604051808215151515815260200191505060405180910390f35b34801561058557600080fd5b506105c86004803603602081101561059c57600080fd5b81019080803573ffffffffffffffffffffffffffffffffffffffff16906020019092919050505061125f565b604051808215151515815260200191505060405180910390f35b3480156105ee57600080fd5b5061065b6004803603606081101561060557600080fd5b81019080803573ffffffffffffffffffffffffffffffffffffffff169060200190929190803573ffffffffffffffffffffffffffffffffffffffff1690602001909291908035906020019092919050505061149f565b604051808215151515815260200191505060405180910390f35b34801561068157600080fd5b5061068a6115dd565b604051808273ffffffffffffffffffffffffffffffffffffffff1673ffffffffffffffffffffffffffffffffffffffff16815260200191505060405180910390f35b3480156106d857600080fd5b50610799600480360360608110156106ef57600080fd5b81019080803573ffffffffffffffffffffffffffffffffffffffff1690602001909291908035906020019064010000000081111561072c57600080fd5b82018360208201111561073e57600080fd5b8035906020019184600183028401116401000000008311171561076057600080fd5b909192939192939080357bffffffffffffffffffffffffffffffffffffffffffffffffffffffff19169060200190929190505050611603565b604051808215151515815260200191505060405180910390f35b6060600480548060200260200160405190810160405280929190818152602001828054801561083757602002820191906000526020600020905b8160009054906101000a900473ffffffffffffffffffffffffffffffffffffffff1673ffffffffffffffffffffffffffffffffffffffff16815260200190600101908083116107ed575b5050505050905090565b600060107c0100000000000000000000000000000000000000000000000000000000027bffffffffffffffffffffffffffffffffffffffffffffffffffffffff191660107c010000000000000000000000000000000000000000000000000000000002600360003373ffffffffffffffffffffffffffffffffffffffff1673ffffffffffffffffffffffffffffffffffffffff16815260200190815260200160002060030160009054906101000a90047c010000000000000000000000000000000000000000000000000000000002167bffffffffffffffffffffffffffffffffffffffffffffffffffffffff19161415156109cb576040517f08c379a000000000000000000000000000000000000000000000000000000000815260040180806020018281038252602b8152602001807f5065726d697373696f6e204572726f723a205065726d697373696f6e546f547281526020017f616e73666572546f6b656e00000000000000000000000000000000000000000081525060400191505060405180910390fd5b6000809054906101000a900473ffffffffffffffffffffffffffffffffffffffff1673ffffffffffffffffffffffffffffffffffffffff1663489769366040518163ffffffff167c010000000000000000000000000000000000000000000000000000000002815260040160206040518083038186803b158015610a4e57600080fd5b505afa158015610a62573d6000803e3d6000fd5b505050506040513d6020811015610a7857600080fd5b8101908080519060200190929190505050905090565b6000809054906101000a900473ffffffffffffffffffffffffffffffffffffffff1681565b600481815481101515610ac257fe5b906000526020600020016000915054906101000a900473ffffffffffffffffffffffffffffffffffffffff1681565b60008273ffffffffffffffffffffffffffffffffffffffff163373ffffffffffffffffffffffffffffffffffffffff167f21f9c9a1a1f9a311a50f15fec5c1faa9e21fc9edf964f0fdecba5bd490484c5e846040518082815260200191505060405180910390a3600160009054906101000a900473ffffffffffffffffffffffffffffffffffffffff1673ffffffffffffffffffffffffffffffffffffffff16630f6798a584846040518363ffffffff167c0100000000000000000000000000000000000000000000000000000000028152600401808373ffffffffffffffffffffffffffffffffffffffff1673ffffffffffffffffffffffffffffffffffffffff16815260200182815260200192505050602060405180830381600087803b158015610c1d57600080fd5b505af1158015610c31573d6000803e3d6000fd5b505050506040513d6020811015610c4757600080fd5b810190808051906020019092919050505090509392505050565b6060600080600360008573ffffffffffffffffffffffffffffffffffffffff1673ffffffffffffffffffffffffffffffffffffffff168152602001908152602001600020600001600360008673ffffffffffffffffffffffffffffffffffffffff1673ffffffffffffffffffffffffffffffffffffffff16815260200190815260200160002060020154600360008773ffffffffffffffffffffffffffffffffffffffff1673ffffffffffffffffffffffffffffffffffffffff16815260200190815260200160002060030160009054906101000a90047c010000000000000000000000000000000000000000000000000000000002828054600181600116156101000203166002900480601f016020809104026020016040519081016040528092919081815260200182805460018160011615610100020316600290048015610dec5780601f10610dc157610100808354040283529160200191610dec565b820191906000526020600020905b815481529060010190602001808311610dcf57829003601f168201915b505050505092509250925092509193909250565b60008060009054906101000a900473ffffffffffffffffffffffffffffffffffffffff1673ffffffffffffffffffffffffffffffffffffffff1663ab751f718585856040518463ffffffff167c0100000000000000000000000000000000000000000000000000000000028152600401808473ffffffffffffffffffffffffffffffffffffffff1673ffffffffffffffffffffffffffffffffffffffff1681526020018373ffffffffffffffffffffffffffffffffffffffff1673ffffffffffffffffffffffffffffffffffffffff1681526020018281526020019350505050602060405180830381600087803b158015610efa57600080fd5b505af1158015610f0e573d6000803e3d6000fd5b505050506040513d6020811015610f2457600080fd5b810190808051906020019092919050505090509392505050565b600260009054906101000a900473ffffffffffffffffffffffffffffffffffffffff1681565b600060107c0100000000000000000000000000000000000000000000000000000000027bffffffffffffffffffffffffffffffffffffffffffffffffffffffff191660107c010000000000000000000000000000000000000000000000000000000002600360003373ffffffffffffffffffffffffffffffffffffffff1673ffffffffffffffffffffffffffffffffffffffff16815260200190815260200160002060030160009054906101000a90047c010000000000000000000000000000000000000000000000000000000002167bffffffffffffffffffffffffffffffffffffffffffffffffffffffff19161415156110ee576040517f08c379a000000000000000000000000000000000000000000000000000000000815260040180806020018281038252602b8152602001807f5065726d697373696f6e204572726f723a205065726d697373696f6e546f547281526020017f616e73666572546f6b656e00000000000000000000000000000000000000000081525060400191505060405180910390fd5b6000809054906101000a900473ffffffffffffffffffffffffffffffffffffffff1673ffffffffffffffffffffffffffffffffffffffff1663b756d5a2868686866040518563ffffffff167c0100000000000000000000000000000000000000000000000000000000028152600401808573ffffffffffffffffffffffffffffffffffffffff1673ffffffffffffffffffffffffffffffffffffffff1681526020018473ffffffffffffffffffffffffffffffffffffffff1673ffffffffffffffffffffffffffffffffffffffff1681526020018373ffffffffffffffffffffffffffffffffffffffff1673ffffffffffffffffffffffffffffffffffffffff168152602001828152602001945050505050602060405180830381600087803b15801561121a57600080fd5b505af115801561122e573d6000803e3d6000fd5b505050506040513d602081101561124457600080fd5b81019080805190602001909291905050509050949350505050565b600080600360008473ffffffffffffffffffffffffffffffffffffffff1673ffffffffffffffffffffffffffffffffffffffff168152602001908152602001600020600201549050600060046001600480549050038154811015156112c057fe5b9060005260206000200160009054906101000a900473ffffffffffffffffffffffffffffffffffffffff169050806004838154811015156112fd57fe5b9060005260206000200160006101000a81548173ffffffffffffffffffffffffffffffffffffffff021916908373ffffffffffffffffffffffffffffffffffffffff16021790555081600360008373ffffffffffffffffffffffffffffffffffffffff1673ffffffffffffffffffffffffffffffffffffffff1681526020019081526020016000206002018190555060048054809190600190036113a1919061186e565b50600360008573ffffffffffffffffffffffffffffffffffffffff1673ffffffffffffffffffffffffffffffffffffffff168152602001908152602001600020600080820160006113f2919061189a565b6001820160006101000a81549073ffffffffffffffffffffffffffffffffffffffff021916905560028201600090556003820160006101000a81549063ffffffff021916905550508373ffffffffffffffffffffffffffffffffffffffff163373ffffffffffffffffffffffffffffffffffffffff167f5f200b531fbee1a78c85e219188d47006568d47fcf79d4d74fb21fce7a9b0f1460405160405180910390a3600192505050919050565b60008060009054906101000a900473ffffffffffffffffffffffffffffffffffffffff1673ffffffffffffffffffffffffffffffffffffffff1663dab0efff8585856040518463ffffffff167c0100000000000000000000000000000000000000000000000000000000028152600401808473ffffffffffffffffffffffffffffffffffffffff1673ffffffffffffffffffffffffffffffffffffffff1681526020018373ffffffffffffffffffffffffffffffffffffffff1673ffffffffffffffffffffffffffffffffffffffff1681526020018281526020019350505050602060405180830381600087803b15801561159957600080fd5b505af11580156115ad573d6000803e3d6000fd5b505050506040513d60208110156115c357600080fd5b810190808051906020019092919050505090509392505050565b600160009054906101000a900473ffffffffffffffffffffffffffffffffffffffff1681565b600084600360008773ffffffffffffffffffffffffffffffffffffffff1673ffffffffffffffffffffffffffffffffffffffff16815260200190815260200160002060010160006101000a81548173ffffffffffffffffffffffffffffffffffffffff021916908373ffffffffffffffffffffffffffffffffffffffff1602179055508383600360008873ffffffffffffffffffffffffffffffffffffffff1673ffffffffffffffffffffffffffffffffffffffff16815260200190815260200160002060000191906116d79291906118e2565b5081600360008773ffffffffffffffffffffffffffffffffffffffff1673ffffffffffffffffffffffffffffffffffffffff16815260200190815260200160002060030160006101000a81548163ffffffff02191690837c01000000000000000000000000000000000000000000000000000000009004021790555060048590806001815401808255809150509060018203906000526020600020016000909192909190916101000a81548173ffffffffffffffffffffffffffffffffffffffff021916908373ffffffffffffffffffffffffffffffffffffffff16021790555050600160048054905003600360008773ffffffffffffffffffffffffffffffffffffffff1673ffffffffffffffffffffffffffffffffffffffff168152602001908152602001600020600201819055508473ffffffffffffffffffffffffffffffffffffffff163373ffffffffffffffffffffffffffffffffffffffff167fef31d574c4891623cdff6ecbf44741580d806ddcb0b7aa1d96d9afbaa550750060405160405180910390a360019050949350505050565b815481835581811115611895578183600052602060002091820191016118949190611962565b5b505050565b50805460018160011615610100020316600290046000825580601f106118c057506118df565b601f0160209004906000526020600020908101906118de9190611962565b5b50565b828054600181600116156101000203166002900490600052602060002090601f016020900481019282601f1061192357803560ff1916838001178555611951565b82800160010185558215611951579182015b82811115611950578235825591602001919060010190611935565b5b50905061195e9190611962565b5090565b61198491905b80821115611980576000816000905550600101611968565b5090565b9056fea165627a7a723058200683319f998f8f08e4ca8335bbdb3144afd02cbeaca7cc2cf8bb6894fb780b8e0029",
  "source": "pragma solidity ^0.5.0;\n\nimport \"./DAO.sol\";\nimport \"../spawn/SpawnDAO.sol\";\n\ncontract DAOController {\n\n    struct Neuron {\n        string neuronName;\n        address neuronAddress;\n        uint listPointer;\n        bytes4 permissions;\n    }\n\n    DAO public dao;\n    DAOToken public valueToken;\n    DAOToken public votingToken;\n\n    mapping(address => Neuron) neurons;\n    address[] public neuronList;\n\n    // event AddGlobalConstraint(address indexed _globalConstraint, bytes32 _params, GlobalConstraintInterface.CallPhase _when);\n    // event RemoveGlobalConstraint(address indexed _globalConstraint, uint256 _index, bool _isPre);\n    event MintTokens (address indexed _sender, address indexed _beneficiary, uint256 _amount);\n    event BurnTokens (address indexed _sender, address indexed _beneficiary, uint256 _amount);\n    event ActivateNeuron (address indexed _sender, address indexed _neuron);\n    event DeactivateNeuron (address indexed _sender, address indexed neuron);\n    // event UpgradeController(address indexed _oldController, address _newController);\n\n    constructor(DAO _dao) public {\n        dao = _dao;\n        valueToken = dao.valueToken();\n        votingToken = dao.votingToken();\n    }\n\n    function getName() public view PermissionToTransferToken() returns (bytes32) {\n        return dao.daoName();\n    }\n\n\n    function getNeurons() public view returns(address[] memory) {\n        return neuronList;\n    }\n\n    function getNeuron(address _neuronAddress) public view returns (string memory, uint, bytes4) {\n        return(neurons[_neuronAddress].neuronName, neurons[_neuronAddress].listPointer, neurons[_neuronAddress].permissions);\n    }\n\n    function activateNeuron (address _neuronAddress, string calldata _neuronName, bytes4 _permissions) external returns(bool) {\n        neurons[_neuronAddress].neuronAddress = _neuronAddress;\n        neurons[_neuronAddress].neuronName = _neuronName;\n        neurons[_neuronAddress].permissions = _permissions;\n        neuronList.push(_neuronAddress);\n        neurons[_neuronAddress].listPointer = neuronList.length-1;\n        emit ActivateNeuron (msg.sender, _neuronAddress);\n        return true;\n    }\n\n    function deactivateNeuron(address _neuronAddress) external returns(bool) {\n        uint rowToDelete = neurons[_neuronAddress].listPointer;\n        address rowToMove = neuronList[neuronList.length-1];\n        neuronList[rowToDelete] = rowToMove;\n        neurons[rowToMove].listPointer = rowToDelete;\n        neuronList.length--;\n        delete neurons[_neuronAddress];\n        emit DeactivateNeuron(msg.sender, _neuronAddress);\n        return true;\n    }\n\n    function mintTokens(address _avatar, address _beneficiary, uint256 _amount)\n    external\n    returns(bool)\n    {\n        emit MintTokens(msg.sender, _beneficiary, _amount);\n        return valueToken.Mint(_beneficiary, _amount);\n    }\n\n    // burn burnTokens (address indexed _sender, address indexed _beneficiary, uint256 _amount);\n\n    function externalTokenTransfer(IERC20 _externalToken, address _to, uint256 _value)\n    external\n    returns(bool)\n    {\n        return dao.externalTokenTransfer(_externalToken, _to, _value);\n    }\n\n    function externalTokenTransferFrom(IERC20 _externalToken, address _from, address _to, uint256 _value)\n    external\n    PermissionToTransferToken()\n    returns(bool)\n    {\n        return dao.externalTokenTransferFrom(_externalToken, _from, _to, _value);\n    }\n\n    function externalTokenApproval(IERC20 _externalToken, address _spender, uint256 _value)\n    external\n    returns(bool)\n    {\n        return dao.externalTokenApproval(_externalToken, _spender, _value);\n    }\n\n    // Need to Implement: upgradeController\n\n    // Modifiers\n\n    modifier isActiveNeuron() {\n        require(neurons[msg.sender].neuronAddress == msg.sender, \"Permissiono Error: Neuron not Active\");\n        _;\n    }\n\n    modifier PermissionToMintToken() {\n        require(neurons[msg.sender].permissions&bytes4(0x00000010) == bytes4(0x00000010), \"Permission Error: PermissionToMintToken\");\n        _;\n    }\n\n    modifier PermissionToBurnToken() {\n        require(neurons[msg.sender].permissions&bytes4(0x00000010) == bytes4(0x00000010), \"Permission Error: PermissionToBurnToken\");\n        _;\n    }\n\n    modifier PermissionToTransferToken() {\n        require(neurons[msg.sender].permissions&bytes4(0x00000010) == bytes4(0x00000010), \"Permission Error: PermissionToTransferToken\");\n        _;\n    }\n\n    modifier PermissionToApproveToken() {\n        require(neurons[msg.sender].permissions&bytes4(0x00000010) == bytes4(0x00000010), \"Permission Error: PermissionToApproveToken\");\n        _;\n    }\n\n    modifier PermissionToActivateNeuron() {\n        require(neurons[msg.sender].permissions&bytes4(0x00000010) == bytes4(0x00000010), \"Permission Error: PermissionToActivateNeuron\");\n        _;\n    }\n\n    modifier PermissionToDeactivateNeuron() {\n        require(neurons[msg.sender].permissions&bytes4(0x00000010) == bytes4(0x00000010), \"Permission Error: PermissionToDeactivateNeuron\");\n        _;\n    }\n\n}",
  "sourcePath": "/Users/neo/Code/dz-0.01/contracts/controller/DAOController.sol",
  "compiler": {
    "name": "solc",
    "version": "0.5.0+commit.1d4f565a.Emscripten.clang"
  },
  "schemaVersion": "3.0.0",
  "updatedAt": "2019-08-16T19:14:56.917Z",
  "devdoc": {
    "methods": {}
  },
  "userdoc": {
    "methods": {}
  }
}