{
  "contractName": "MintTokenChoice",
  "abi": [
    {
      "inputs": [
        {
          "name": "_dao",
          "type": "address"
        },
        {
          "name": "_daoToken",
          "type": "address"
        },
        {
          "name": "_beneficiary",
          "type": "address"
        },
        {
          "name": "_amount",
          "type": "uint256"
        }
      ],
      "payable": false,
      "stateMutability": "nonpayable",
      "type": "constructor",
      "signature": "constructor"
    },
    {
      "anonymous": false,
      "inputs": [
        {
          "indexed": false,
          "name": "_dao",
          "type": "address"
        },
        {
          "indexed": false,
          "name": "_beneficiary",
          "type": "address"
        },
        {
          "indexed": false,
          "name": "_amount",
          "type": "uint256"
        }
      ],
      "name": "MintTokensEvent",
      "type": "event",
      "signature": "0x4e6baac910c29b169b30dab9f8ea29204b2d7dbb1a21147afd3bbb44135d195c"
    },
    {
      "constant": false,
      "inputs": [
        {
          "name": "_dao",
          "type": "address"
        }
      ],
      "name": "approveChoice",
      "outputs": [
        {
          "name": "",
          "type": "bool"
        }
      ],
      "payable": false,
      "stateMutability": "nonpayable",
      "type": "function",
      "signature": "0xe783d8e2"
    }
  ],
  "bytecode": "0x60806040526000809054906101000a900473ffffffffffffffffffffffffffffffffffffffff16600160009054906101000a900473ffffffffffffffffffffffffffffffffffffffff166002610053610253565b808473ffffffffffffffffffffffffffffffffffffffff1673ffffffffffffffffffffffffffffffffffffffff1681526020018373ffffffffffffffffffffffffffffffffffffffff1673ffffffffffffffffffffffffffffffffffffffff1681526020018281526020019350505050604051809103906000f0801580156100df573d6000803e3d6000fd5b50600360006101000a81548173ffffffffffffffffffffffffffffffffffffffff021916908373ffffffffffffffffffffffffffffffffffffffff16021790555034801561012c57600080fd5b506040516080806113ec8339810180604052608081101561014c57600080fd5b8101908080519060200190929190805190602001909291908051906020019092919080519060200190929190505050836000806101000a81548173ffffffffffffffffffffffffffffffffffffffff021916908373ffffffffffffffffffffffffffffffffffffffff16021790555082600160006101000a81548173ffffffffffffffffffffffffffffffffffffffff021916908373ffffffffffffffffffffffffffffffffffffffff16021790555081600460000160006101000a81548173ffffffffffffffffffffffffffffffffffffffff021916908373ffffffffffffffffffffffffffffffffffffffff1602179055508060046001018190555050505050610263565b604051610e6c8061058083390190565b61030e806102726000396000f3fe608060405260043610610041576000357c0100000000000000000000000000000000000000000000000000000000900463ffffffff168063e783d8e214610046575b600080fd5b34801561005257600080fd5b506100956004803603602081101561006957600080fd5b81019080803573ffffffffffffffffffffffffffffffffffffffff1690602001909291905050506100af565b604051808215151515815260200191505060405180910390f35b6000600260009054906101000a900473ffffffffffffffffffffffffffffffffffffffff1673ffffffffffffffffffffffffffffffffffffffff16636fc98ee183600460000160009054906101000a900473ffffffffffffffffffffffffffffffffffffffff166004600101546040518463ffffffff167c0100000000000000000000000000000000000000000000000000000000028152600401808473ffffffffffffffffffffffffffffffffffffffff1673ffffffffffffffffffffffffffffffffffffffff1681526020018373ffffffffffffffffffffffffffffffffffffffff1673ffffffffffffffffffffffffffffffffffffffff1681526020018281526020019350505050602060405180830381600087803b1580156101d457600080fd5b505af11580156101e8573d6000803e3d6000fd5b505050506040513d60208110156101fe57600080fd5b8101908080519060200190929190505050507f4e6baac910c29b169b30dab9f8ea29204b2d7dbb1a21147afd3bbb44135d195c82600460000160009054906101000a900473ffffffffffffffffffffffffffffffffffffffff16600460010154604051808473ffffffffffffffffffffffffffffffffffffffff1673ffffffffffffffffffffffffffffffffffffffff1681526020018373ffffffffffffffffffffffffffffffffffffffff1673ffffffffffffffffffffffffffffffffffffffff168152602001828152602001935050505060405180910390a16001905091905056fea165627a7a72305820957adbe6f5c8665306314008cf3ba5cb1ef6cf29704fbf5c8daf0601f32a3f4d002960806040526060604051908101604052806040805190810160405280600881526020017f70726f706f73656400000000000000000000000000000000000000000000000081525081526020016040805190810160405280600881526020017f617070726f76656400000000000000000000000000000000000000000000000081525081526020016040805190810160405280600881526020017f72656a6563746564000000000000000000000000000000000000000000000000815250815250600a906003620000d1929190620001f2565b50348015620000df57600080fd5b5060405160608062000e6c833981018060405260608110156200010157600080fd5b81019080805190602001909291908051906020019092919080519060200190929190505050826000806101000a81548173ffffffffffffffffffffffffffffffffffffffff021916908373ffffffffffffffffffffffffffffffffffffffff16021790555081600160006101000a81548173ffffffffffffffffffffffffffffffffffffffff021916908373ffffffffffffffffffffffffffffffffffffffff160217905550600a6000600381101515620001b857fe5b0160046002019080546001816001161561010002031660029004620001df9291906200024c565b5080600480018190555050505062000406565b826003810192821562000239579160200282015b828111156200023857825182908051906020019062000227929190620002da565b509160200191906001019062000206565b5b50905062000248919062000361565b5090565b828054600181600116156101000203166002900490600052602060002090601f016020900481019282601f10620002875780548555620002c7565b82800160010185558215620002c757600052602060002091601f016020900482015b82811115620002c6578254825591600101919060010190620002a9565b5b509050620002d6919062000392565b5090565b828054600181600116156101000203166002900490600052602060002090601f016020900481019282601f106200031d57805160ff19168380011785556200034e565b828001600101855582156200034e579182015b828111156200034d57825182559160200191906001019062000330565b5b5090506200035d919062000392565b5090565b6200038f91905b808211156200038b5760008181620003819190620003ba565b5060010162000368565b5090565b90565b620003b791905b80821115620003b357600081600090555060010162000399565b5090565b90565b50805460018160011615610100020316600290046000825580601f10620003e2575062000403565b601f01602090049060005260206000209081019062000402919062000392565b5b50565b610a5680620004166000396000f3fe608060405260043610610083576000357c0100000000000000000000000000000000000000000000000000000000900463ffffffff16806322b1919014610088578063266cf7a5146100df5780634162169f1461016f5780634914b030146101c65780635f74bbde1461021d578063d48de62214610290578063e7b3387c146102e7575b600080fd5b34801561009457600080fd5b5061009d610312565b604051808273ffffffffffffffffffffffffffffffffffffffff1673ffffffffffffffffffffffffffffffffffffffff16815260200191505060405180910390f35b3480156100eb57600080fd5b506100f4610338565b6040518080602001828103825283818151815260200191508051906020019080838360005b83811015610134578082015181840152602081019050610119565b50505050905090810190601f1680156101615780820380516001836020036101000a031916815260200191505b509250505060405180910390f35b34801561017b57600080fd5b506101846103dd565b604051808273ffffffffffffffffffffffffffffffffffffffff1673ffffffffffffffffffffffffffffffffffffffff16815260200191505060405180910390f35b3480156101d257600080fd5b506101db610402565b604051808273ffffffffffffffffffffffffffffffffffffffff1673ffffffffffffffffffffffffffffffffffffffff16815260200191505060405180910390f35b34801561022957600080fd5b506102766004803603604081101561024057600080fd5b81019080803573ffffffffffffffffffffffffffffffffffffffff16906020019092919080359060200190929190505050610428565b604051808215151515815260200191505060405180910390f35b34801561029c57600080fd5b506102a5610826565b604051808273ffffffffffffffffffffffffffffffffffffffff1673ffffffffffffffffffffffffffffffffffffffff16815260200191505060405180910390f35b3480156102f357600080fd5b506102fc61084c565b6040518082815260200191505060405180910390f35b600360009054906101000a900473ffffffffffffffffffffffffffffffffffffffff1681565b606060046002018054600181600116156101000203166002900480601f0160208091040260200160405190810160405280929190818152602001828054600181600116156101000203166002900480156103d35780601f106103a8576101008083540402835291602001916103d3565b820191906000526020600020905b8154815290600101906020018083116103b657829003601f168201915b5050505050905090565b6000809054906101000a900473ffffffffffffffffffffffffffffffffffffffff1681565b600160009054906101000a900473ffffffffffffffffffffffffffffffffffffffff1681565b60008260011515600d60008373ffffffffffffffffffffffffffffffffffffffff1673ffffffffffffffffffffffffffffffffffffffff16815260200190815260200160002060020160009054906101000a900460ff161515141515156104f7576040517f08c379a000000000000000000000000000000000000000000000000000000000815260040180806020018281038252601e8152602001807f4572726f723a20566f7465722068617320616c726561647920766f746564000081525060200191505060405180910390fd5b836000600160009054906101000a900473ffffffffffffffffffffffffffffffffffffffff1673ffffffffffffffffffffffffffffffffffffffff166370a08231836040518263ffffffff167c0100000000000000000000000000000000000000000000000000000000028152600401808273ffffffffffffffffffffffffffffffffffffffff1673ffffffffffffffffffffffffffffffffffffffff16815260200191505060206040518083038186803b1580156105b557600080fd5b505afa1580156105c9573d6000803e3d6000fd5b505050506040513d60208110156105df57600080fd5b810190808051906020019092919050505011151561068b576040517f08c379a00000000000000000000000000000000000000000000000000000000081526004018080602001828103825260218152602001807f4572726f723a20566f746572206973206e6f7420612076616c696420766f746581526020017f720000000000000000000000000000000000000000000000000000000000000081525060400191505060405180910390fd5b84600d60008773ffffffffffffffffffffffffffffffffffffffff1673ffffffffffffffffffffffffffffffffffffffff16815260200190815260200160002060000160006101000a81548173ffffffffffffffffffffffffffffffffffffffff021916908373ffffffffffffffffffffffffffffffffffffffff16021790555083600d60008773ffffffffffffffffffffffffffffffffffffffff1673ffffffffffffffffffffffffffffffffffffffff168152602001908152602001600020600101819055506001600d60008773ffffffffffffffffffffffffffffffffffffffff1673ffffffffffffffffffffffffffffffffffffffff16815260200190815260200160002060020160006101000a81548160ff0219169083151502179055506004600301600081548092919060010191905055508473ffffffffffffffffffffffffffffffffffffffff167fc591aa98f3e7d1c3a106f4653e39eba694fcc03ba3c686dfbefbf82f6b06bcea856040518082815260200191505060405180910390a2610819610859565b5060019250505092915050565b600260009054906101000a900473ffffffffffffffffffffffffffffffffffffffff1681565b6000600460030154905090565b600060048001546004600301541415610981576040805190810160405280600881526020017f617070726f766564000000000000000000000000000000000000000000000000815250600460020190805190602001906108ba929190610985565b507faf8e7cd7ab69a541eca44a3375831c411576f96e824a51d181e497dc6c491a936004600201604051808060200182810382528381815460018160011615610100020316600290048152602001915080546001816001161561010002031660029004801561096a5780601f1061093f5761010080835404028352916020019161096a565b820191906000526020600020905b81548152906001019060200180831161094d57829003601f168201915b50509250505060405180910390a160019050610982565b5b90565b828054600181600116156101000203166002900490600052602060002090601f016020900481019282601f106109c657805160ff19168380011785556109f4565b828001600101855582156109f4579182015b828111156109f35782518255916020019190600101906109d8565b5b509050610a019190610a05565b5090565b610a2791905b80821115610a23576000816000905550600101610a0b565b5090565b9056fea165627a7a72305820538265bc15da10fbd364bee897d99cef67a43d8d6640f4039f8e25c66cf7967b0029",
  "source": "pragma solidity ^0.5.0;\n\nimport \"./Choice.sol\";\nimport \"./ChoiceType.sol\";\nimport \"../controller/DAO.sol\";\nimport \"../controller/DAOController.sol\";\n\n\ncontract MintTokenChoice {\n\n    DAO dao;\n    DAOToken daoToken;\n    DAOController daoController;\n    // MintTokenChoice mtc;\n    \n    Choice choice = new Choice(dao, daoToken, 2); //mtc\n\n    event MintTokensEvent(DAO _dao, address _beneficiary, uint256 _amount);\n\n    struct MintTokensToAddress {\n        address benefiary;\n        uint256 amount;\n    }\n\n    MintTokensToAddress mintTokensToAddress;\n\n    constructor(DAO _dao, DAOToken _daoToken, address _beneficiary, uint256 _amount) public {\n        dao = _dao;\n        daoToken = _daoToken;\n        mintTokensToAddress.benefiary = _beneficiary;\n        mintTokensToAddress.amount = _amount;\n    }\n\n    function approveChoice(DAO _dao) public returns(bool) {\n        daoController.mintTokens(_dao, mintTokensToAddress.benefiary, mintTokensToAddress.amount);\n        emit MintTokensEvent(_dao, mintTokensToAddress.benefiary, mintTokensToAddress.amount);\n        return true;\n    }\n}",
  "sourcePath": "/Users/neo/Code/dz-0.01/contracts/choices/MintTokenChoice.sol",
  "compiler": {
    "name": "solc",
    "version": "0.5.0+commit.1d4f565a.Emscripten.clang"
  },
  "schemaVersion": "3.0.0",
  "updatedAt": "2019-08-17T05:09:05.637Z",
  "devdoc": {
    "methods": {}
  },
  "userdoc": {
    "methods": {}
  }
}