{
  "contractName": "SpawnController",
  "abi": [
    {
      "constant": false,
      "inputs": [
        {
          "name": "_dao",
          "type": "address"
        }
      ],
      "name": "create",
      "outputs": [
        {
          "name": "",
          "type": "address"
        }
      ],
      "payable": false,
      "stateMutability": "nonpayable",
      "type": "function",
      "signature": "0x9ed93318"
    }
  ],
  "bytecode": "0x608060405234801561001057600080fd5b50611c9f806100206000396000f3fe608060405260043610610041576000357c0100000000000000000000000000000000000000000000000000000000900463ffffffff1680639ed9331814610046575b600080fd5b34801561005257600080fd5b506100956004803603602081101561006957600080fd5b81019080803573ffffffffffffffffffffffffffffffffffffffff1690602001909291905050506100d7565b604051808273ffffffffffffffffffffffffffffffffffffffff1673ffffffffffffffffffffffffffffffffffffffff16815260200191505060405180910390f35b600080826100e3610141565b808273ffffffffffffffffffffffffffffffffffffffff1673ffffffffffffffffffffffffffffffffffffffff168152602001915050604051809103906000f080158015610135573d6000803e3d6000fd5b50905080915050919050565b604051611b22806101528339019056fe608060405234801561001057600080fd5b50604051602080611b228339810180604052602081101561003057600080fd5b8101908080519060200190929190505050806000806101000a81548173ffffffffffffffffffffffffffffffffffffffff021916908373ffffffffffffffffffffffffffffffffffffffff1602179055506000809054906101000a900473ffffffffffffffffffffffffffffffffffffffff1673ffffffffffffffffffffffffffffffffffffffff1663effff82f6040518163ffffffff167c010000000000000000000000000000000000000000000000000000000002815260040160206040518083038186803b15801561010457600080fd5b505afa158015610118573d6000803e3d6000fd5b505050506040513d602081101561012e57600080fd5b8101908080519060200190929190505050600160006101000a81548173ffffffffffffffffffffffffffffffffffffffff021916908373ffffffffffffffffffffffffffffffffffffffff1602179055506000809054906101000a900473ffffffffffffffffffffffffffffffffffffffff1673ffffffffffffffffffffffffffffffffffffffff1663b03401236040518163ffffffff167c010000000000000000000000000000000000000000000000000000000002815260040160206040518083038186803b15801561020257600080fd5b505afa158015610216573d6000803e3d6000fd5b505050506040513d602081101561022c57600080fd5b8101908080519060200190929190505050600260006101000a81548173ffffffffffffffffffffffffffffffffffffffff021916908373ffffffffffffffffffffffffffffffffffffffff160217905550506118958061028d6000396000f3fe6080604052600436106100c5576000357c0100000000000000000000000000000000000000000000000000000000900463ffffffff1680630744ef37146100ca57806317d7de7c146101365780634162169f14610161578063431bd03b146101b85780636fc98ee1146102335780639d41661f146102c6578063ab751f71146103dc578063b03401231461046f578063b756d5a2146104c6578063d6be4d2714610579578063dab0efff146105e2578063effff82f14610675578063f1fb5bcb146106cc575b600080fd5b3480156100d657600080fd5b506100df6107b3565b6040518080602001828103825283818151815260200191508051906020019060200280838360005b83811015610122578082015181840152602081019050610107565b505050509050019250505060405180910390f35b34801561014257600080fd5b5061014b610841565b6040518082815260200191505060405180910390f35b34801561016d57600080fd5b506101766109ff565b604051808273ffffffffffffffffffffffffffffffffffffffff1673ffffffffffffffffffffffffffffffffffffffff16815260200191505060405180910390f35b3480156101c457600080fd5b506101f1600480360360208110156101db57600080fd5b8101908080359060200190929190505050610a24565b604051808273ffffffffffffffffffffffffffffffffffffffff1673ffffffffffffffffffffffffffffffffffffffff16815260200191505060405180910390f35b34801561023f57600080fd5b506102ac6004803603606081101561025657600080fd5b81019080803573ffffffffffffffffffffffffffffffffffffffff169060200190929190803573ffffffffffffffffffffffffffffffffffffffff16906020019092919080359060200190929190505050610a62565b604051808215151515815260200191505060405180910390f35b3480156102d257600080fd5b50610315600480360360208110156102e957600080fd5b81019080803573ffffffffffffffffffffffffffffffffffffffff169060200190929190505050610bd2565b6040518080602001848152602001837bffffffffffffffffffffffffffffffffffffffffffffffffffffffff19167bffffffffffffffffffffffffffffffffffffffffffffffffffffffff19168152602001828103825285818151815260200191508051906020019080838360005b8381101561039f578082015181840152602081019050610384565b50505050905090810190601f1680156103cc5780820380516001836020036101000a031916815260200191505b5094505050505060405180910390f35b3480156103e857600080fd5b50610455600480360360608110156103ff57600080fd5b81019080803573ffffffffffffffffffffffffffffffffffffffff169060200190929190803573ffffffffffffffffffffffffffffffffffffffff16906020019092919080359060200190929190505050610d71565b604051808215151515815260200191505060405180910390f35b34801561047b57600080fd5b50610484610eaf565b604051808273ffffffffffffffffffffffffffffffffffffffff1673ffffffffffffffffffffffffffffffffffffffff16815260200191505060405180910390f35b3480156104d257600080fd5b5061055f600480360360808110156104e957600080fd5b81019080803573ffffffffffffffffffffffffffffffffffffffff169060200190929190803573ffffffffffffffffffffffffffffffffffffffff169060200190929190803573ffffffffffffffffffffffffffffffffffffffff16906020019092919080359060200190929190505050610ed5565b604051808215151515815260200191505060405180910390f35b34801561058557600080fd5b506105c86004803603602081101561059c57600080fd5b81019080803573ffffffffffffffffffffffffffffffffffffffff169060200190929190505050611141565b604051808215151515815260200191505060405180910390f35b3480156105ee57600080fd5b5061065b6004803603606081101561060557600080fd5b81019080803573ffffffffffffffffffffffffffffffffffffffff169060200190929190803573ffffffffffffffffffffffffffffffffffffffff16906020019092919080359060200190929190505050611381565b604051808215151515815260200191505060405180910390f35b34801561068157600080fd5b5061068a6114bf565b604051808273ffffffffffffffffffffffffffffffffffffffff1673ffffffffffffffffffffffffffffffffffffffff16815260200191505060405180910390f35b3480156106d857600080fd5b50610799600480360360608110156106ef57600080fd5b81019080803573ffffffffffffffffffffffffffffffffffffffff1690602001909291908035906020019064010000000081111561072c57600080fd5b82018360208201111561073e57600080fd5b8035906020019184600183028401116401000000008311171561076057600080fd5b909192939192939080357bffffffffffffffffffffffffffffffffffffffffffffffffffffffff191690602001909291905050506114e5565b604051808215151515815260200191505060405180910390f35b6060600480548060200260200160405190810160405280929190818152602001828054801561083757602002820191906000526020600020905b8160009054906101000a900473ffffffffffffffffffffffffffffffffffffffff1673ffffffffffffffffffffffffffffffffffffffff16815260200190600101908083116107ed575b5050505050905090565b600060107c0100000000000000000000000000000000000000000000000000000000027bffffffffffffffffffffffffffffffffffffffffffffffffffffffff191660107c010000000000000000000000000000000000000000000000000000000002600360003373ffffffffffffffffffffffffffffffffffffffff1673ffffffffffffffffffffffffffffffffffffffff16815260200190815260200160002060030160009054906101000a90047c010000000000000000000000000000000000000000000000000000000002167bffffffffffffffffffffffffffffffffffffffffffffffffffffffff191614151561093c57600080fd5b6000809054906101000a900473ffffffffffffffffffffffffffffffffffffffff1673ffffffffffffffffffffffffffffffffffffffff1663489769366040518163ffffffff167c010000000000000000000000000000000000000000000000000000000002815260040160206040518083038186803b1580156109bf57600080fd5b505afa1580156109d3573d6000803e3d6000fd5b505050506040513d60208110156109e957600080fd5b8101908080519060200190929190505050905090565b6000809054906101000a900473ffffffffffffffffffffffffffffffffffffffff1681565b600481815481101515610a3357fe5b906000526020600020016000915054906101000a900473ffffffffffffffffffffffffffffffffffffffff1681565b60008273ffffffffffffffffffffffffffffffffffffffff163373ffffffffffffffffffffffffffffffffffffffff167f21f9c9a1a1f9a311a50f15fec5c1faa9e21fc9edf964f0fdecba5bd490484c5e846040518082815260200191505060405180910390a3600160009054906101000a900473ffffffffffffffffffffffffffffffffffffffff1673ffffffffffffffffffffffffffffffffffffffff16630f6798a584846040518363ffffffff167c0100000000000000000000000000000000000000000000000000000000028152600401808373ffffffffffffffffffffffffffffffffffffffff1673ffffffffffffffffffffffffffffffffffffffff16815260200182815260200192505050602060405180830381600087803b158015610b8e57600080fd5b505af1158015610ba2573d6000803e3d6000fd5b505050506040513d6020811015610bb857600080fd5b810190808051906020019092919050505090509392505050565b6060600080600360008573ffffffffffffffffffffffffffffffffffffffff1673ffffffffffffffffffffffffffffffffffffffff168152602001908152602001600020600001600360008673ffffffffffffffffffffffffffffffffffffffff1673ffffffffffffffffffffffffffffffffffffffff16815260200190815260200160002060020154600360008773ffffffffffffffffffffffffffffffffffffffff1673ffffffffffffffffffffffffffffffffffffffff16815260200190815260200160002060030160009054906101000a90047c010000000000000000000000000000000000000000000000000000000002828054600181600116156101000203166002900480601f016020809104026020016040519081016040528092919081815260200182805460018160011615610100020316600290048015610d5d5780601f10610d3257610100808354040283529160200191610d5d565b820191906000526020600020905b815481529060010190602001808311610d4057829003601f168201915b505050505092509250925092509193909250565b60008060009054906101000a900473ffffffffffffffffffffffffffffffffffffffff1673ffffffffffffffffffffffffffffffffffffffff1663ab751f718585856040518463ffffffff167c0100000000000000000000000000000000000000000000000000000000028152600401808473ffffffffffffffffffffffffffffffffffffffff1673ffffffffffffffffffffffffffffffffffffffff1681526020018373ffffffffffffffffffffffffffffffffffffffff1673ffffffffffffffffffffffffffffffffffffffff1681526020018281526020019350505050602060405180830381600087803b158015610e6b57600080fd5b505af1158015610e7f573d6000803e3d6000fd5b505050506040513d6020811015610e9557600080fd5b810190808051906020019092919050505090509392505050565b600260009054906101000a900473ffffffffffffffffffffffffffffffffffffffff1681565b600060107c0100000000000000000000000000000000000000000000000000000000027bffffffffffffffffffffffffffffffffffffffffffffffffffffffff191660107c010000000000000000000000000000000000000000000000000000000002600360003373ffffffffffffffffffffffffffffffffffffffff1673ffffffffffffffffffffffffffffffffffffffff16815260200190815260200160002060030160009054906101000a90047c010000000000000000000000000000000000000000000000000000000002167bffffffffffffffffffffffffffffffffffffffffffffffffffffffff1916141515610fd057600080fd5b6000809054906101000a900473ffffffffffffffffffffffffffffffffffffffff1673ffffffffffffffffffffffffffffffffffffffff1663b756d5a2868686866040518563ffffffff167c0100000000000000000000000000000000000000000000000000000000028152600401808573ffffffffffffffffffffffffffffffffffffffff1673ffffffffffffffffffffffffffffffffffffffff1681526020018473ffffffffffffffffffffffffffffffffffffffff1673ffffffffffffffffffffffffffffffffffffffff1681526020018373ffffffffffffffffffffffffffffffffffffffff1673ffffffffffffffffffffffffffffffffffffffff168152602001828152602001945050505050602060405180830381600087803b1580156110fc57600080fd5b505af1158015611110573d6000803e3d6000fd5b505050506040513d602081101561112657600080fd5b81019080805190602001909291905050509050949350505050565b600080600360008473ffffffffffffffffffffffffffffffffffffffff1673ffffffffffffffffffffffffffffffffffffffff168152602001908152602001600020600201549050600060046001600480549050038154811015156111a257fe5b9060005260206000200160009054906101000a900473ffffffffffffffffffffffffffffffffffffffff169050806004838154811015156111df57fe5b9060005260206000200160006101000a81548173ffffffffffffffffffffffffffffffffffffffff021916908373ffffffffffffffffffffffffffffffffffffffff16021790555081600360008373ffffffffffffffffffffffffffffffffffffffff1673ffffffffffffffffffffffffffffffffffffffff1681526020019081526020016000206002018190555060048054809190600190036112839190611750565b50600360008573ffffffffffffffffffffffffffffffffffffffff1673ffffffffffffffffffffffffffffffffffffffff168152602001908152602001600020600080820160006112d4919061177c565b6001820160006101000a81549073ffffffffffffffffffffffffffffffffffffffff021916905560028201600090556003820160006101000a81549063ffffffff021916905550508373ffffffffffffffffffffffffffffffffffffffff163373ffffffffffffffffffffffffffffffffffffffff167f5f200b531fbee1a78c85e219188d47006568d47fcf79d4d74fb21fce7a9b0f1460405160405180910390a3600192505050919050565b60008060009054906101000a900473ffffffffffffffffffffffffffffffffffffffff1673ffffffffffffffffffffffffffffffffffffffff1663dab0efff8585856040518463ffffffff167c0100000000000000000000000000000000000000000000000000000000028152600401808473ffffffffffffffffffffffffffffffffffffffff1673ffffffffffffffffffffffffffffffffffffffff1681526020018373ffffffffffffffffffffffffffffffffffffffff1673ffffffffffffffffffffffffffffffffffffffff1681526020018281526020019350505050602060405180830381600087803b15801561147b57600080fd5b505af115801561148f573d6000803e3d6000fd5b505050506040513d60208110156114a557600080fd5b810190808051906020019092919050505090509392505050565b600160009054906101000a900473ffffffffffffffffffffffffffffffffffffffff1681565b600084600360008773ffffffffffffffffffffffffffffffffffffffff1673ffffffffffffffffffffffffffffffffffffffff16815260200190815260200160002060010160006101000a81548173ffffffffffffffffffffffffffffffffffffffff021916908373ffffffffffffffffffffffffffffffffffffffff1602179055508383600360008873ffffffffffffffffffffffffffffffffffffffff1673ffffffffffffffffffffffffffffffffffffffff16815260200190815260200160002060000191906115b99291906117c4565b5081600360008773ffffffffffffffffffffffffffffffffffffffff1673ffffffffffffffffffffffffffffffffffffffff16815260200190815260200160002060030160006101000a81548163ffffffff02191690837c01000000000000000000000000000000000000000000000000000000009004021790555060048590806001815401808255809150509060018203906000526020600020016000909192909190916101000a81548173ffffffffffffffffffffffffffffffffffffffff021916908373ffffffffffffffffffffffffffffffffffffffff16021790555050600160048054905003600360008773ffffffffffffffffffffffffffffffffffffffff1673ffffffffffffffffffffffffffffffffffffffff168152602001908152602001600020600201819055508473ffffffffffffffffffffffffffffffffffffffff163373ffffffffffffffffffffffffffffffffffffffff167fef31d574c4891623cdff6ecbf44741580d806ddcb0b7aa1d96d9afbaa550750060405160405180910390a360019050949350505050565b815481835581811115611777578183600052602060002091820191016117769190611844565b5b505050565b50805460018160011615610100020316600290046000825580601f106117a257506117c1565b601f0160209004906000526020600020908101906117c09190611844565b5b50565b828054600181600116156101000203166002900490600052602060002090601f016020900481019282601f1061180557803560ff1916838001178555611833565b82800160010185558215611833579182015b82811115611832578235825591602001919060010190611817565b5b5090506118409190611844565b5090565b61186691905b8082111561186257600081600090555060010161184a565b5090565b9056fea165627a7a72305820cb947e0fb06fddf690901d3513eedacd976a2ab5962704f980e8de27051396fb0029a165627a7a72305820dd6a7b0bfef6ae8d8000e756c6989ebd37f58facd6ff051146eaf6ec2f613fa00029",
  "source": "pragma solidity ^0.5.0;\n\nimport \"./DAO.sol\";\nimport \"./DAOController.sol\";\n\ncontract SpawnController {\n\n    function create(DAO _dao) public returns(address) {\n        DAOController controller = new DAOController(_dao);\n        // controller.registerScheme(msg.sender, bytes32(0), bytes4(0x0000001f), address(_avatar));\n        // controller.unregisterScheme(address(this), address(_avatar));\n        return address(controller);\n    }\n}\n\n",
  "sourcePath": "/Users/neo/Code/dz-0.01/contracts/SpawnController.sol",
  "compiler": {
    "name": "solc",
    "version": "0.5.0+commit.1d4f565a.Emscripten.clang"
  },
  "schemaVersion": "3.0.0",
  "updatedAt": "2019-08-16T18:52:30.784Z",
  "devdoc": {
    "methods": {}
  },
  "userdoc": {
    "methods": {}
  }
}