{
  "contractName": "SpawnController",
  "abi": [
    {
      "constant": false,
      "inputs": [
        {
          "name": "_dao",
          "type": "address"
        }
      ],
      "name": "create",
      "outputs": [
        {
          "name": "",
          "type": "address"
        }
      ],
      "payable": false,
      "stateMutability": "nonpayable",
      "type": "function"
    }
  ],
  "bytecode": "0x608060405234801561001057600080fd5b50612874806100206000396000f3fe608060405260043610610041576000357c0100000000000000000000000000000000000000000000000000000000900463ffffffff1680639ed9331814610046575b600080fd5b34801561005257600080fd5b506100956004803603602081101561006957600080fd5b81019080803573ffffffffffffffffffffffffffffffffffffffff1690602001909291905050506100d7565b604051808273ffffffffffffffffffffffffffffffffffffffff1673ffffffffffffffffffffffffffffffffffffffff16815260200191505060405180910390f35b600080826100e3610141565b808273ffffffffffffffffffffffffffffffffffffffff1673ffffffffffffffffffffffffffffffffffffffff168152602001915050604051809103906000f080158015610135573d6000803e3d6000fd5b50905080915050919050565b6040516126f7806101528339019056fe608060405234801561001057600080fd5b50604051602080620026f78339810180604052602081101561003157600080fd5b8101908080519060200190929190505050806000806101000a81548173ffffffffffffffffffffffffffffffffffffffff021916908373ffffffffffffffffffffffffffffffffffffffff1602179055506000809054906101000a900473ffffffffffffffffffffffffffffffffffffffff1673ffffffffffffffffffffffffffffffffffffffff16634914b0306040518163ffffffff167c010000000000000000000000000000000000000000000000000000000002815260040160206040518083038186803b15801561010557600080fd5b505afa158015610119573d6000803e3d6000fd5b505050506040513d602081101561012f57600080fd5b8101908080519060200190929190505050600160006101000a81548173ffffffffffffffffffffffffffffffffffffffff021916908373ffffffffffffffffffffffffffffffffffffffff1602179055505061256680620001916000396000f3fe6080604052600436106100d0576000357c0100000000000000000000000000000000000000000000000000000000900463ffffffff1680630744ef37146100d55780630d1118ce1461014157806317d7de7c146101b45780634162169f14610244578063431bd03b1461029b5780634914b030146103165780636fc98ee11461036d5780639d41661f14610400578063ab751f7114610516578063b756d5a2146105a9578063d6be4d271461065c578063dab0efff146106c5578063f1fb5bcb14610758578063fbed8c341461083f575b600080fd5b3480156100e157600080fd5b506100ea6108d2565b6040518080602001828103825283818151815260200191508051906020019060200280838360005b8381101561012d578082015181840152602081019050610112565b505050509050019250505060405180910390f35b34801561014d57600080fd5b5061019a6004803603604081101561016457600080fd5b81019080803573ffffffffffffffffffffffffffffffffffffffff16906020019092919080359060200190929190505050610960565b604051808215151515815260200191505060405180910390f35b3480156101c057600080fd5b506101c9610c0c565b6040518080602001828103825283818151815260200191508051906020019080838360005b838110156102095780820151818401526020810190506101ee565b50505050905090810190601f1680156102365780820380516001836020036101000a031916815260200191505b509250505060405180910390f35b34801561025057600080fd5b50610259610eaf565b604051808273ffffffffffffffffffffffffffffffffffffffff1673ffffffffffffffffffffffffffffffffffffffff16815260200191505060405180910390f35b3480156102a757600080fd5b506102d4600480360360208110156102be57600080fd5b8101908080359060200190929190505050610ed4565b604051808273ffffffffffffffffffffffffffffffffffffffff1673ffffffffffffffffffffffffffffffffffffffff16815260200191505060405180910390f35b34801561032257600080fd5b5061032b610f12565b604051808273ffffffffffffffffffffffffffffffffffffffff1673ffffffffffffffffffffffffffffffffffffffff16815260200191505060405180910390f35b34801561037957600080fd5b506103e66004803603606081101561039057600080fd5b81019080803573ffffffffffffffffffffffffffffffffffffffff169060200190929190803573ffffffffffffffffffffffffffffffffffffffff16906020019092919080359060200190929190505050610f38565b604051808215151515815260200191505060405180910390f35b34801561040c57600080fd5b5061044f6004803603602081101561042357600080fd5b81019080803573ffffffffffffffffffffffffffffffffffffffff1690602001909291905050506110a8565b6040518080602001848152602001837bffffffffffffffffffffffffffffffffffffffffffffffffffffffff19167bffffffffffffffffffffffffffffffffffffffffffffffffffffffff19168152602001828103825285818151815260200191508051906020019080838360005b838110156104d95780820151818401526020810190506104be565b50505050905090810190601f1680156105065780820380516001836020036101000a031916815260200191505b5094505050505060405180910390f35b34801561052257600080fd5b5061058f6004803603606081101561053957600080fd5b81019080803573ffffffffffffffffffffffffffffffffffffffff169060200190929190803573ffffffffffffffffffffffffffffffffffffffff16906020019092919080359060200190929190505050611247565b604051808215151515815260200191505060405180910390f35b3480156105b557600080fd5b50610642600480360360808110156105cc57600080fd5b81019080803573ffffffffffffffffffffffffffffffffffffffff169060200190929190803573ffffffffffffffffffffffffffffffffffffffff169060200190929190803573ffffffffffffffffffffffffffffffffffffffff1690602001909291908035906020019092919050505061150d565b604051808215151515815260200191505060405180910390f35b34801561066857600080fd5b506106ab6004803603602081101561067f57600080fd5b81019080803573ffffffffffffffffffffffffffffffffffffffff169060200190929190505050611808565b604051808215151515815260200191505060405180910390f35b3480156106d157600080fd5b5061073e600480360360608110156106e857600080fd5b81019080803573ffffffffffffffffffffffffffffffffffffffff169060200190929190803573ffffffffffffffffffffffffffffffffffffffff16906020019092919080359060200190929190505050611bf8565b604051808215151515815260200191505060405180910390f35b34801561076457600080fd5b506108256004803603606081101561077b57600080fd5b81019080803573ffffffffffffffffffffffffffffffffffffffff169060200190929190803590602001906401000000008111156107b857600080fd5b8201836020820111156107ca57600080fd5b803590602001918460018302840111640100000000831117156107ec57600080fd5b909192939192939080357bffffffffffffffffffffffffffffffffffffffffffffffffffffffff19169060200190929190505050611ebe565b604051808215151515815260200191505060405180910390f35b34801561084b57600080fd5b506108b86004803603606081101561086257600080fd5b81019080803573ffffffffffffffffffffffffffffffffffffffff169060200190929190803573ffffffffffffffffffffffffffffffffffffffff16906020019092919080359060200190929190505050612129565b604051808215151515815260200191505060405180910390f35b6060600380548060200260200160405190810160405280929190818152602001828054801561095657602002820191906000526020600020905b8160009054906101000a900473ffffffffffffffffffffffffffffffffffffffff1673ffffffffffffffffffffffffffffffffffffffff168152602001906001019080831161090c575b5050505050905090565b600060107c0100000000000000000000000000000000000000000000000000000000027bffffffffffffffffffffffffffffffffffffffffffffffffffffffff191660107c010000000000000000000000000000000000000000000000000000000002600260003373ffffffffffffffffffffffffffffffffffffffff1673ffffffffffffffffffffffffffffffffffffffff16815260200190815260200160002060040160009054906101000a90047c010000000000000000000000000000000000000000000000000000000002167bffffffffffffffffffffffffffffffffffffffffffffffffffffffff1916141515610aea576040517f08c379a00000000000000000000000000000000000000000000000000000000081526004018080602001828103825260278152602001807f5065726d697373696f6e204572726f723a205065726d697373696f6e546f427581526020017f726e546f6b656e0000000000000000000000000000000000000000000000000081525060400191505060405180910390fd5b3373ffffffffffffffffffffffffffffffffffffffff167f388d6102a0230861b4e9646fb5acda1c5ec15d39df2b619d39c25d16a1268490836040518082815260200191505060405180910390a2600160009054906101000a900473ffffffffffffffffffffffffffffffffffffffff1673ffffffffffffffffffffffffffffffffffffffff1663b90306ad836040518263ffffffff167c010000000000000000000000000000000000000000000000000000000002815260040180828152602001915050602060405180830381600087803b158015610bc957600080fd5b505af1158015610bdd573d6000803e3d6000fd5b505050506040513d6020811015610bf357600080fd5b8101908080519060200190929190505050905092915050565b606060107c0100000000000000000000000000000000000000000000000000000000027bffffffffffffffffffffffffffffffffffffffffffffffffffffffff191660107c010000000000000000000000000000000000000000000000000000000002600260003373ffffffffffffffffffffffffffffffffffffffff1673ffffffffffffffffffffffffffffffffffffffff16815260200190815260200160002060040160009054906101000a90047c010000000000000000000000000000000000000000000000000000000002167bffffffffffffffffffffffffffffffffffffffffffffffffffffffff1916141515610d96576040517f08c379a000000000000000000000000000000000000000000000000000000000815260040180806020018281038252602b8152602001807f5065726d697373696f6e204572726f723a205065726d697373696f6e546f547281526020017f616e73666572546f6b656e00000000000000000000000000000000000000000081525060400191505060405180910390fd5b6000809054906101000a900473ffffffffffffffffffffffffffffffffffffffff1673ffffffffffffffffffffffffffffffffffffffff1663489769366040518163ffffffff167c010000000000000000000000000000000000000000000000000000000002815260040160006040518083038186803b158015610e1957600080fd5b505afa158015610e2d573d6000803e3d6000fd5b505050506040513d6000823e3d601f19601f820116820180604052506020811015610e5757600080fd5b810190808051640100000000811115610e6f57600080fd5b82810190506020810184811115610e8557600080fd5b8151856001820283011164010000000082111715610ea257600080fd5b5050929190505050905090565b6000809054906101000a900473ffffffffffffffffffffffffffffffffffffffff1681565b600381815481101515610ee357fe5b906000526020600020016000915054906101000a900473ffffffffffffffffffffffffffffffffffffffff1681565b600160009054906101000a900473ffffffffffffffffffffffffffffffffffffffff1681565b60008273ffffffffffffffffffffffffffffffffffffffff163373ffffffffffffffffffffffffffffffffffffffff167f21f9c9a1a1f9a311a50f15fec5c1faa9e21fc9edf964f0fdecba5bd490484c5e846040518082815260200191505060405180910390a3600160009054906101000a900473ffffffffffffffffffffffffffffffffffffffff1673ffffffffffffffffffffffffffffffffffffffff16630f6798a584846040518363ffffffff167c0100000000000000000000000000000000000000000000000000000000028152600401808373ffffffffffffffffffffffffffffffffffffffff1673ffffffffffffffffffffffffffffffffffffffff16815260200182815260200192505050602060405180830381600087803b15801561106457600080fd5b505af1158015611078573d6000803e3d6000fd5b505050506040513d602081101561108e57600080fd5b810190808051906020019092919050505090509392505050565b6060600080600260008573ffffffffffffffffffffffffffffffffffffffff1673ffffffffffffffffffffffffffffffffffffffff168152602001908152602001600020600001600260008673ffffffffffffffffffffffffffffffffffffffff1673ffffffffffffffffffffffffffffffffffffffff16815260200190815260200160002060030154600260008773ffffffffffffffffffffffffffffffffffffffff1673ffffffffffffffffffffffffffffffffffffffff16815260200190815260200160002060040160009054906101000a90047c010000000000000000000000000000000000000000000000000000000002828054600181600116156101000203166002900480601f0160208091040260200160405190810160405280929190818152602001828054600181600116156101000203166002900480156112335780601f1061120857610100808354040283529160200191611233565b820191906000526020600020905b81548152906001019060200180831161121657829003601f168201915b505050505092509250925092509193909250565b600060107c0100000000000000000000000000000000000000000000000000000000027bffffffffffffffffffffffffffffffffffffffffffffffffffffffff191660107c010000000000000000000000000000000000000000000000000000000002600260003373ffffffffffffffffffffffffffffffffffffffff1673ffffffffffffffffffffffffffffffffffffffff16815260200190815260200160002060040160009054906101000a90047c010000000000000000000000000000000000000000000000000000000002167bffffffffffffffffffffffffffffffffffffffffffffffffffffffff19161415156113d1576040517f08c379a000000000000000000000000000000000000000000000000000000000815260040180806020018281038252602a8152602001807f5065726d697373696f6e204572726f723a205065726d697373696f6e546f417081526020017f70726f7665546f6b656e0000000000000000000000000000000000000000000081525060400191505060405180910390fd5b6000809054906101000a900473ffffffffffffffffffffffffffffffffffffffff1673ffffffffffffffffffffffffffffffffffffffff1663ab751f718585856040518463ffffffff167c0100000000000000000000000000000000000000000000000000000000028152600401808473ffffffffffffffffffffffffffffffffffffffff1673ffffffffffffffffffffffffffffffffffffffff1681526020018373ffffffffffffffffffffffffffffffffffffffff1673ffffffffffffffffffffffffffffffffffffffff1681526020018281526020019350505050602060405180830381600087803b1580156114c957600080fd5b505af11580156114dd573d6000803e3d6000fd5b505050506040513d60208110156114f357600080fd5b810190808051906020019092919050505090509392505050565b600060107c0100000000000000000000000000000000000000000000000000000000027bffffffffffffffffffffffffffffffffffffffffffffffffffffffff191660107c010000000000000000000000000000000000000000000000000000000002600260003373ffffffffffffffffffffffffffffffffffffffff1673ffffffffffffffffffffffffffffffffffffffff16815260200190815260200160002060040160009054906101000a90047c010000000000000000000000000000000000000000000000000000000002167bffffffffffffffffffffffffffffffffffffffffffffffffffffffff1916141515611697576040517f08c379a000000000000000000000000000000000000000000000000000000000815260040180806020018281038252602f8152602001807f5065726d697373696f6e204572726f723a205065726d697373696f6e546f547281526020017f616e73666572546f6b656e46726f6d000000000000000000000000000000000081525060400191505060405180910390fd5b6000809054906101000a900473ffffffffffffffffffffffffffffffffffffffff1673ffffffffffffffffffffffffffffffffffffffff1663b756d5a2868686866040518563ffffffff167c0100000000000000000000000000000000000000000000000000000000028152600401808573ffffffffffffffffffffffffffffffffffffffff1673ffffffffffffffffffffffffffffffffffffffff1681526020018473ffffffffffffffffffffffffffffffffffffffff1673ffffffffffffffffffffffffffffffffffffffff1681526020018373ffffffffffffffffffffffffffffffffffffffff1673ffffffffffffffffffffffffffffffffffffffff168152602001828152602001945050505050602060405180830381600087803b1580156117c357600080fd5b505af11580156117d7573d6000803e3d6000fd5b505050506040513d60208110156117ed57600080fd5b81019080805190602001909291905050509050949350505050565b600060107c0100000000000000000000000000000000000000000000000000000000027bffffffffffffffffffffffffffffffffffffffffffffffffffffffff191660107c010000000000000000000000000000000000000000000000000000000002600260003373ffffffffffffffffffffffffffffffffffffffff1673ffffffffffffffffffffffffffffffffffffffff16815260200190815260200160002060040160009054906101000a90047c010000000000000000000000000000000000000000000000000000000002167bffffffffffffffffffffffffffffffffffffffffffffffffffffffff1916141515611992576040517f08c379a000000000000000000000000000000000000000000000000000000000815260040180806020018281038252602e8152602001807f5065726d697373696f6e204572726f723a205065726d697373696f6e546f446581526020017f61637469766174654e6575726f6e00000000000000000000000000000000000081525060400191505060405180910390fd5b6000600260008473ffffffffffffffffffffffffffffffffffffffff1673ffffffffffffffffffffffffffffffffffffffff168152602001908152602001600020600301549050600060036001600380549050038154811015156119f257fe5b9060005260206000200160009054906101000a900473ffffffffffffffffffffffffffffffffffffffff16905080600383815481101515611a2f57fe5b9060005260206000200160006101000a81548173ffffffffffffffffffffffffffffffffffffffff021916908373ffffffffffffffffffffffffffffffffffffffff16021790555081600260008373ffffffffffffffffffffffffffffffffffffffff1673ffffffffffffffffffffffffffffffffffffffff168152602001908152602001600020600301819055506003805480919060019003611ad39190612421565b50600260008573ffffffffffffffffffffffffffffffffffffffff1673ffffffffffffffffffffffffffffffffffffffff16815260200190815260200160002060008082016000611b24919061244d565b6001820160006101000a81549073ffffffffffffffffffffffffffffffffffffffff02191690556002820160006101000a81549073ffffffffffffffffffffffffffffffffffffffff021916905560038201600090556004820160006101000a81549063ffffffff021916905550508373ffffffffffffffffffffffffffffffffffffffff163373ffffffffffffffffffffffffffffffffffffffff167f5f200b531fbee1a78c85e219188d47006568d47fcf79d4d74fb21fce7a9b0f1460405160405180910390a3600192505050919050565b600060107c0100000000000000000000000000000000000000000000000000000000027bffffffffffffffffffffffffffffffffffffffffffffffffffffffff191660107c010000000000000000000000000000000000000000000000000000000002600260003373ffffffffffffffffffffffffffffffffffffffff1673ffffffffffffffffffffffffffffffffffffffff16815260200190815260200160002060040160009054906101000a90047c010000000000000000000000000000000000000000000000000000000002167bffffffffffffffffffffffffffffffffffffffffffffffffffffffff1916141515611d82576040517f08c379a00000000000000000000000000000000000000000000000000000000081526004018080602001828103825260278152602001807f5065726d697373696f6e204572726f723a205065726d697373696f6e546f427581526020017f726e546f6b656e0000000000000000000000000000000000000000000000000081525060400191505060405180910390fd5b6000809054906101000a900473ffffffffffffffffffffffffffffffffffffffff1673ffffffffffffffffffffffffffffffffffffffff1663dab0efff8585856040518463ffffffff167c0100000000000000000000000000000000000000000000000000000000028152600401808473ffffffffffffffffffffffffffffffffffffffff1673ffffffffffffffffffffffffffffffffffffffff1681526020018373ffffffffffffffffffffffffffffffffffffffff1673ffffffffffffffffffffffffffffffffffffffff1681526020018281526020019350505050602060405180830381600087803b158015611e7a57600080fd5b505af1158015611e8e573d6000803e3d6000fd5b505050506040513d6020811015611ea457600080fd5b810190808051906020019092919050505090509392505050565b600084600260008773ffffffffffffffffffffffffffffffffffffffff1673ffffffffffffffffffffffffffffffffffffffff16815260200190815260200160002060010160006101000a81548173ffffffffffffffffffffffffffffffffffffffff021916908373ffffffffffffffffffffffffffffffffffffffff1602179055508383600260008873ffffffffffffffffffffffffffffffffffffffff1673ffffffffffffffffffffffffffffffffffffffff1681526020019081526020016000206000019190611f92929190612495565b5081600260008773ffffffffffffffffffffffffffffffffffffffff1673ffffffffffffffffffffffffffffffffffffffff16815260200190815260200160002060040160006101000a81548163ffffffff02191690837c01000000000000000000000000000000000000000000000000000000009004021790555060038590806001815401808255809150509060018203906000526020600020016000909192909190916101000a81548173ffffffffffffffffffffffffffffffffffffffff021916908373ffffffffffffffffffffffffffffffffffffffff16021790555050600160038054905003600260008773ffffffffffffffffffffffffffffffffffffffff1673ffffffffffffffffffffffffffffffffffffffff168152602001908152602001600020600301819055508473ffffffffffffffffffffffffffffffffffffffff163373ffffffffffffffffffffffffffffffffffffffff167fef31d574c4891623cdff6ecbf44741580d806ddcb0b7aa1d96d9afbaa550750060405160405180910390a360019050949350505050565b600060107c0100000000000000000000000000000000000000000000000000000000027bffffffffffffffffffffffffffffffffffffffffffffffffffffffff191660107c010000000000000000000000000000000000000000000000000000000002600260003373ffffffffffffffffffffffffffffffffffffffff1673ffffffffffffffffffffffffffffffffffffffff16815260200190815260200160002060040160009054906101000a90047c010000000000000000000000000000000000000000000000000000000002167bffffffffffffffffffffffffffffffffffffffffffffffffffffffff19161415156122b3576040517f08c379a00000000000000000000000000000000000000000000000000000000081526004018080602001828103825260278152602001807f5065726d697373696f6e204572726f723a205065726d697373696f6e546f427581526020017f726e546f6b656e0000000000000000000000000000000000000000000000000081525060400191505060405180910390fd5b8273ffffffffffffffffffffffffffffffffffffffff163373ffffffffffffffffffffffffffffffffffffffff167fab41a87bee05e2b9309d40c2695ccfd5a232863b03a6a07536f3466ed5b82b43846040518082815260200191505060405180910390a3600160009054906101000a900473ffffffffffffffffffffffffffffffffffffffff1673ffffffffffffffffffffffffffffffffffffffff166328e1a60484846040518363ffffffff167c0100000000000000000000000000000000000000000000000000000000028152600401808373ffffffffffffffffffffffffffffffffffffffff1673ffffffffffffffffffffffffffffffffffffffff16815260200182815260200192505050602060405180830381600087803b1580156123dd57600080fd5b505af11580156123f1573d6000803e3d6000fd5b505050506040513d602081101561240757600080fd5b810190808051906020019092919050505090509392505050565b815481835581811115612448578183600052602060002091820191016124479190612515565b5b505050565b50805460018160011615610100020316600290046000825580601f106124735750612492565b601f0160209004906000526020600020908101906124919190612515565b5b50565b828054600181600116156101000203166002900490600052602060002090601f016020900481019282601f106124d657803560ff1916838001178555612504565b82800160010185558215612504579182015b828111156125035782358255916020019190600101906124e8565b5b5090506125119190612515565b5090565b61253791905b8082111561253357600081600090555060010161251b565b5090565b9056fea165627a7a7230582068bef1d96abd4e6f606ffd24314fb4b6bd8ddca852bb053d0cb8bdadaa57aaba0029a165627a7a72305820ecc91507774c9531c062b053432e45d501ab4b90d497079908270df69f88df710029",
  "source": "pragma solidity ^0.5.0;\n\nimport \"../controller/DAO.sol\";\nimport \"../controller/DAOController.sol\";\n\ncontract SpawnController {\n\n    function create(DAO _dao) public returns(address) {\n        DAOController controller = new DAOController(_dao);\n        return address(controller);\n    }\n}",
  "sourcePath": "/Users/neo/Code/dz-0.01/contracts/spawn/SpawnController.sol",
  "compiler": {
    "name": "solc",
    "version": "0.5.0+commit.1d4f565a.Emscripten.clang"
  },
  "schemaVersion": "3.0.14",
  "updatedAt": "2019-08-31T19:03:43.525Z",
  "devdoc": {
    "methods": {}
  },
  "userdoc": {
    "methods": {}
  }
}