{
  "contractName": "TokenMinter",
  "abi": [
    {
      "constant": true,
      "inputs": [],
      "name": "daoController",
      "outputs": [
        {
          "name": "",
          "type": "address"
        }
      ],
      "payable": false,
      "stateMutability": "view",
      "type": "function",
      "signature": "0xd48de622"
    },
    {
      "inputs": [
        {
          "name": "_daoController",
          "type": "address"
        }
      ],
      "payable": false,
      "stateMutability": "nonpayable",
      "type": "constructor",
      "signature": "constructor"
    },
    {
      "anonymous": false,
      "inputs": [
        {
          "indexed": false,
          "name": "_dao",
          "type": "address"
        },
        {
          "indexed": false,
          "name": "_beneficiary",
          "type": "address"
        },
        {
          "indexed": false,
          "name": "_amount",
          "type": "uint256"
        }
      ],
      "name": "MintTokensEvent",
      "type": "event",
      "signature": "0x4e6baac910c29b169b30dab9f8ea29204b2d7dbb1a21147afd3bbb44135d195c"
    },
    {
      "constant": false,
      "inputs": [
        {
          "name": "_dao",
          "type": "address"
        },
        {
          "name": "_beneficiary",
          "type": "address"
        },
        {
          "name": "_amount",
          "type": "uint256"
        }
      ],
      "name": "MintTokens",
      "outputs": [
        {
          "name": "",
          "type": "bool"
        }
      ],
      "payable": false,
      "stateMutability": "nonpayable",
      "type": "function",
      "signature": "0x21f9c9a1"
    }
  ],
  "bytecode": "0x608060405234801561001057600080fd5b506040516020806103fd8339810180604052602081101561003057600080fd5b8101908080519060200190929190505050806000806101000a81548173ffffffffffffffffffffffffffffffffffffffff021916908373ffffffffffffffffffffffffffffffffffffffff1602179055505061036c806100916000396000f3fe60806040526004361061004c576000357c0100000000000000000000000000000000000000000000000000000000900463ffffffff16806321f9c9a114610051578063d48de622146100e4575b600080fd5b34801561005d57600080fd5b506100ca6004803603606081101561007457600080fd5b81019080803573ffffffffffffffffffffffffffffffffffffffff169060200190929190803573ffffffffffffffffffffffffffffffffffffffff1690602001909291908035906020019092919050505061013b565b604051808215151515815260200191505060405180910390f35b3480156100f057600080fd5b506100f961031b565b604051808273ffffffffffffffffffffffffffffffffffffffff1673ffffffffffffffffffffffffffffffffffffffff16815260200191505060405180910390f35b60008060009054906101000a900473ffffffffffffffffffffffffffffffffffffffff1673ffffffffffffffffffffffffffffffffffffffff16636fc98ee18585856040518463ffffffff167c0100000000000000000000000000000000000000000000000000000000028152600401808473ffffffffffffffffffffffffffffffffffffffff1673ffffffffffffffffffffffffffffffffffffffff1681526020018373ffffffffffffffffffffffffffffffffffffffff1673ffffffffffffffffffffffffffffffffffffffff1681526020018281526020019350505050602060405180830381600087803b15801561023557600080fd5b505af1158015610249573d6000803e3d6000fd5b505050506040513d602081101561025f57600080fd5b8101908080519060200190929190505050507f4e6baac910c29b169b30dab9f8ea29204b2d7dbb1a21147afd3bbb44135d195c848484604051808473ffffffffffffffffffffffffffffffffffffffff1673ffffffffffffffffffffffffffffffffffffffff1681526020018373ffffffffffffffffffffffffffffffffffffffff1673ffffffffffffffffffffffffffffffffffffffff168152602001828152602001935050505060405180910390a1600190509392505050565b6000809054906101000a900473ffffffffffffffffffffffffffffffffffffffff168156fea165627a7a723058200f17682f733b39676184f4686bd03a9d680f40dcf91520b7467202127e74dfcf0029",
  "source": "pragma solidity ^0.5.0;\n\nimport \"../controller/DAOController.sol\";\nimport \"../controller/DAO.sol\";\n\ncontract TokenMinter {\n\n    DAOController public daoController;\n\n    constructor(DAOController _daoController) public {\n        daoController = _daoController;\n    }\n\n    event MintTokensEvent(address _dao, address _beneficiary, uint256 _amount);\n\n    function MintTokens(address _dao, address _beneficiary, uint256 _amount) public returns(bool) {\n        daoController.mintTokens(_dao, _beneficiary, _amount);\n        emit MintTokensEvent(_dao, _beneficiary, _amount);\n        return true;\n    }\n}",
  "sourcePath": "/Users/neo/Code/dz-0.01/contracts/neurons/TokenMinter.sol",
  "compiler": {
    "name": "solc",
    "version": "0.5.0+commit.1d4f565a.Emscripten.clang"
  },
  "schemaVersion": "3.0.0",
  "updatedAt": "2019-08-16T23:19:12.315Z",
  "devdoc": {
    "methods": {}
  },
  "userdoc": {
    "methods": {}
  }
}