{
  "contractName": "TokenMinter",
  "abi": [
    {
      "constant": true,
      "inputs": [],
      "name": "dao",
      "outputs": [
        {
          "name": "",
          "type": "address"
        }
      ],
      "payable": false,
      "stateMutability": "view",
      "type": "function",
      "signature": "0x4162169f"
    },
    {
      "constant": true,
      "inputs": [],
      "name": "daoController",
      "outputs": [
        {
          "name": "",
          "type": "address"
        }
      ],
      "payable": false,
      "stateMutability": "view",
      "type": "function",
      "signature": "0xd48de622"
    },
    {
      "inputs": [
        {
          "name": "_daoController",
          "type": "address"
        }
      ],
      "payable": false,
      "stateMutability": "nonpayable",
      "type": "constructor",
      "signature": "constructor"
    },
    {
      "anonymous": false,
      "inputs": [
        {
          "indexed": false,
          "name": "_dao",
          "type": "address"
        },
        {
          "indexed": false,
          "name": "_beneficiary",
          "type": "address"
        },
        {
          "indexed": false,
          "name": "_amount",
          "type": "uint256"
        }
      ],
      "name": "MintTokensEvent",
      "type": "event",
      "signature": "0x4e6baac910c29b169b30dab9f8ea29204b2d7dbb1a21147afd3bbb44135d195c"
    },
    {
      "constant": false,
      "inputs": [
        {
          "name": "_dao",
          "type": "address"
        },
        {
          "name": "_beneficiary",
          "type": "address"
        },
        {
          "name": "_amount",
          "type": "uint256"
        }
      ],
      "name": "MintTokens",
      "outputs": [
        {
          "name": "",
          "type": "bool"
        }
      ],
      "payable": false,
      "stateMutability": "nonpayable",
      "type": "function",
      "signature": "0x21f9c9a1"
    }
  ],
  "bytecode": "0x608060405234801561001057600080fd5b506040516020806104878339810180604052602081101561003057600080fd5b810190808051906020019092919050505080600160006101000a81548173ffffffffffffffffffffffffffffffffffffffff021916908373ffffffffffffffffffffffffffffffffffffffff160217905550506103f5806100926000396000f3fe608060405260043610610057576000357c0100000000000000000000000000000000000000000000000000000000900463ffffffff16806321f9c9a11461005c5780634162169f146100ef578063d48de62214610146575b600080fd5b34801561006857600080fd5b506100d56004803603606081101561007f57600080fd5b81019080803573ffffffffffffffffffffffffffffffffffffffff169060200190929190803573ffffffffffffffffffffffffffffffffffffffff1690602001909291908035906020019092919050505061019d565b604051808215151515815260200191505060405180910390f35b3480156100fb57600080fd5b5061010461037e565b604051808273ffffffffffffffffffffffffffffffffffffffff1673ffffffffffffffffffffffffffffffffffffffff16815260200191505060405180910390f35b34801561015257600080fd5b5061015b6103a3565b604051808273ffffffffffffffffffffffffffffffffffffffff1673ffffffffffffffffffffffffffffffffffffffff16815260200191505060405180910390f35b6000600160009054906101000a900473ffffffffffffffffffffffffffffffffffffffff1673ffffffffffffffffffffffffffffffffffffffff16636fc98ee18585856040518463ffffffff167c0100000000000000000000000000000000000000000000000000000000028152600401808473ffffffffffffffffffffffffffffffffffffffff1673ffffffffffffffffffffffffffffffffffffffff1681526020018373ffffffffffffffffffffffffffffffffffffffff1673ffffffffffffffffffffffffffffffffffffffff1681526020018281526020019350505050602060405180830381600087803b15801561029857600080fd5b505af11580156102ac573d6000803e3d6000fd5b505050506040513d60208110156102c257600080fd5b8101908080519060200190929190505050507f4e6baac910c29b169b30dab9f8ea29204b2d7dbb1a21147afd3bbb44135d195c848484604051808473ffffffffffffffffffffffffffffffffffffffff1673ffffffffffffffffffffffffffffffffffffffff1681526020018373ffffffffffffffffffffffffffffffffffffffff1673ffffffffffffffffffffffffffffffffffffffff168152602001828152602001935050505060405180910390a1600190509392505050565b6000809054906101000a900473ffffffffffffffffffffffffffffffffffffffff1681565b600160009054906101000a900473ffffffffffffffffffffffffffffffffffffffff168156fea165627a7a723058203bf8c323c548583d8842e456fd7875d585f57f1fec518611adba9ce271b30bbe0029",
  "source": "pragma solidity ^0.5.0;\n\nimport \"../controller/DAO.sol\";\nimport \"../controller/DAOController.sol\";\n\ncontract TokenMinter {\n\n    DAO public dao;\n    DAOController public daoController;\n\n    constructor(DAOController _daoController) public {\n        daoController = _daoController;\n    }\n\n    event MintTokensEvent(DAO _dao, address _beneficiary, uint256 _amount);\n\n    function MintTokens(DAO _dao, address _beneficiary, uint256 _amount) public returns(bool) {\n        daoController.mintTokens(_dao, _beneficiary, _amount);\n        emit MintTokensEvent(_dao, _beneficiary, _amount);\n        return true;\n    }\n}",
  "sourcePath": "/Users/neo/Code/dz-0.01/contracts/neurons/TokenMinter.sol",
  "compiler": {
    "name": "solc",
    "version": "0.5.0+commit.1d4f565a.Emscripten.clang"
  },
  "schemaVersion": "3.0.0",
  "updatedAt": "2019-08-17T19:43:16.160Z",
  "devdoc": {
    "methods": {}
  },
  "userdoc": {
    "methods": {}
  }
}